:09094100010800010A000109008F
:1008C100EF24FB601314601914601F24037023E5E7
:1008D100A0541F4480F5A022E5A0541F44A0F5A018
:1008E10022E5A0541F44C0F5A022E5A0541F44E016
:0308F100F5A0224D
:10091F00E58954F04401F589758CFF758A9BD28C5B
:05092F00D2A9D2AF22A5
:08094B007F6C7E91DEFEDFFCF3
:010953002281
:10088C0020B03112094B20B02B30B0FD050AE50A1F
:10089C00B40403E4F50AE50A14600E14600F146046
:1008AC00102403700FE4F5082275080A2275081449
:0508BC002275085A221C
:0D0934007F041208C112091F12088C80FBFD
:03000B000208F4F4
:1008F400C0E0C0D0758CFF758A9B0509E509B46416
:1009040003750900E509C395085002C280E509C3CF
:0B09140095084002D280D0D0D0E03225
:03000000020800F3
:0C080000787FE4F6D8FD75810A020847F5
:10080C00020934E493A3F8E493A34003F68001F2C5
:10081C0008DFF48029E493A3F85407240CC8C333ED
:10082C00C4540F4420C8834004F456800146F6DFBC
:10083C00E4800B0102040810204080900941E47E02
:10084C00019360BCA3FF543F30E509541FFEE493B1
:10085C00A360010ECF54C025E060A840B8E493A378
:10086C00FAE493A3F8E493A3C8C582C8CAC583CAA3
:10087C00F0A3C8C582C8CAC583CADFE9DEE780BE5B
:01094A0000AC
:00000001FF
