:100C8F003F065B4F666D7D077F6F777C395E7971AD
:100C9F000040761E7038375C733E783D6750376E74
:0B0CAF00BF86DBCFE6EDFD87FFEF46C0
:060D56000408000000008B
:100C00008E0C8F0D120D1A7F90120C63120D09AF0E
:100C10000D120C63120D09120D41120D1A7F911263
:100C20000C63120D09120CBAAC07E41209B08F0B59
:100C30008E0A8D098C08C200120CF2120D41E4FFDD
:100C4000FE7DFA7C43AB0BAA0AA909A8081208008A
:100C5000E4FBFA797F78431209098F0B8E0A8D091C
:030C60008C0822DB
:080D4D007F64AE071FEE70FA8F
:010D5500227B
:100CD7007401A807088002C333D8FC90C000F090C5
:0B0CE700E000EDF0120D4D74FFF02254
:100B8A00AF0BAE0AAD09AC081209E47C007D641211
:100B9A000A65748F2FF582740C3EF583E493F4FD95
:100BAA007F05120CD7AF0BAE0AAD09AC081209E4E7
:100BBA007C007D0A120A657C007D0A120A65748F20
:100BCA002DF582740C3CF583E493F4FD7F06120C38
:100BDA00D7AF0BAE0AAD09AC081209E47C007D0A56
:100BEA00120A65748F2DF582740C3CF583E493F434
:060BFA00FD7F07020CD78D
:0C0D29007F437E00120C00120B8A80F445
:040D3500D2A07F0ABF
:080D390000AE071FEE70F92265
:0F0D1A00D2A1120D35C2A17F0A120D39C2A0223B
:0C0D4100C2A1120D35D2A17F0A020D39AB
:100CF200C2A0A20092A17F0A120D39120D35C2A024
:070D0200D2A17F0A020D39A6
:100D0900120D35A2A19200C2A07F0A120D39A200CC
:010D190022B7
:020C6300AD07DB
:100C6500E4FCC2A07F0A120D39ED30E704D2A18061
:100C750002C2A17F0A120D39D2A0ED25E0FD7F0A3F
:090C8500120D390CBC08DBC2A001
:010C8E002243
:100CBA00E4FC120D35ED25E0FD30A103430501C228
:0C0CCA00A07F0A120D390CBC08E8AF0531
:010CD60022FB
:10080000EC4D6011E8497017ED33EC3304600DE4F2
:10081000FCFFFEFD22E933E8330470F8020A5012AF
:100820000A1B58046009E4CC2481500628500902B0
:100830000A5A284003020A57C0E0EB4A7044B980C4
:1008400006D0E0FB020A46EF4E701CBD8008EBFFAD
:10085000EAFEE9FD80EBE98DF0A4FEE5F00208E98F
:10086000E9CDF9EAFEEBFFEF89F0A4FCE5F0CE89D3
:10087000F0A42EFFE435F0CD89F0A42DFEE435F090
:100880008067EF4E7005BD80D780C3EF8BF0A4ACBE
:10089000F0EE8BF0A42CFCE435F0F8EF8AF0A42CF9
:1008A000E5F038FCE433CB8DF0A42CFCE5F03BF80C
:1008B000EE8AF0A42CFCE5F038F8E433CF89F0A4FC
:1008C0002CFCE5F038CF3400CE89F0A42FFFE5F002
:1008D0003EFEE433C98DF0A42EFEE5F039CD8AF05A
:1008E000A42FFFE5F03EFEE43DFD33D0E0FB5007D2
:1008F0000BBB000F020A5AEC2CFCEF33FFEE33FE69
:06090000ED33FD020A3296
:10090600020A5AEC5D046005E859047003020A50B5
:10091600120A1B580460F6EC4860F2EC7004FDFE07
:10092600FF22C860DB2481C85009C39860025006C4
:10093600020A579850CAF582E9294B4A7005AB82DC
:10094600020A4675F0007C1A7880C3EF9BEE9AED9A
:1009560099400DC3EF9BFFEE9AFEED99FDE842F03C
:10096600DC23ACF0D0E0FFD0E0FED0E0FDAB82208F
:10097600E7101BEB60BAEC2CFCEF33FFEE33FEED19
:1009860033FD020A32E803F830E705C0F075F000DF
:10099600EF2FFFEE33FEED33FD40B830E7C280AAFD
:1009A60075F020800E75F010800575F0087D007ECC
:1009B600007F003392D530D503120A9BEC334010EA
:1009C600EF33FFEE33FEED33FDEC33FCD5F0ED22D5
:0E09D600E5F0247EA2D513CC92E7CDCEFF2211
:1009E400EDD2E7CD33EC3392D524814006E4FFFE0B
:1009F400FDFC22FCE4CFCECDCC24E0501174FF806A
:100A0400EDC3CC13CCCD13CDCE13CECF13CF047006
:070A1400F030D5DE020A9B61
:100A1B00E9D2E7C933E833F892D5EDD2E7CD33EC21
:070A2B0033FC5002B2D5229A
:100A3200EC30E7100FBF000C0EBE00080DBD000425
:100A42000BEB6014A2D5EB13FCED92E7FD2274FFD1
:100A5200FCFDFEFF22E480F8A2D574FF13FC7D802A
:030A6200E480EF3E
:03000000020AFEF3
:0C0AFE00787FE4F6D8FD758120020B45DE
:100A6500C2D5EC30E709B2D5E4C39DFDE49CFCEEAC
:100A750030E715B2D5E4C39FFFE49EFE120AA9C371
:100A8500E49DFDE49CFC8003120AA930D507C3E46C
:060A95009FFFE49EFE221B
:0E0A9B00C3E49FFFE49EFEE49DFDE49CFC226C
:100B0A00020D29E493A3F8E493A34003F68001F2CB
:100B1A0008DFF48029E493A3F85407240CC8C333EC
:100B2A00C4540F4420C8834004F456800146F6DFBB
:100B3A00E4800B0102040810204080900D56E47EE8
:100B4A00019360BCA3FF543F30E509541FFEE493B0
:100B5A00A360010ECF54C025E060A840B8E493A377
:100B6A00FAE493A3F8E493A3C8C582C8CAC583CAA2
:100B7A00F0A3C8C582C8CAC583CADFE9DEE780BE5A
:010D5C000096
:100AA900BC000BBE0029EF8DF084FFADF022E4CC31
:100AB900F875F008EF2FFFEE33FEEC33FCEE9DECFA
:100AC900984005FCEE9DFE0FD5F0E9E4CEFD22ED40
:100AD900F8F5F0EE8420D21CFEADF075F008EF2F8A
:100AE900FFED33FD4007985006D5F0F222C398FD7B
:050AF9000FD5F0EA2218
:00000001FF
