:10041E003F065B4F666D7D077F6F777C395E797126
:10042E000040761E7038375C733E783D6750376EED
:0B043E00BF86DBCFE6EDFD87FFEF4639
:0C056A0001091E010814010B00010C0027
:07034C001203537580FF0F3F
:10035300EF24FB601314601914601F24037023E55A
:10036300A0541F4480F5A022E5A0541F44A0F5A08B
:1003730022E5A0541F44C0F5A022E5A0541F44E089
:03038300F5A022C0
:08059B007F3CAE071FEE70FA71
:0105A3002235
:1003BE00741E2FF58274043EF583E493F4FD7F06DC
:1003CE00AE077F06120353AF067401A8070880021A
:1003DE00C333D8FCF5807F071203538D8012059B23
:0403EE007580FF22F5
:10054B007F0412034CE4F5800F12034C7580FF22DD
:1004E5008E128F13E5131513AE12700215124E609E
:0704F5000512057780EE22DD
:1002F7001204497FCC1204907F441204907F287E19
:10030700001204E51204497FCC1204907FBE120448
:10031700901204CB8F0D1204CB8F0A120449750E6D
:1003270000850A0FE50FF50EE50DF50FE50E54F8FC
:100337007012E50EC4F854F0C868F50EE50FC45402
:050347000F48F50F2234
:1003860090042AE493F4FDE4FF1203CEAE0EAF0F01
:100396007C007D0A1202221203BEAE0EAF0F7C0055
:1003A6007D0A120222741E2DF58274043CF583E444
:0803B60093F4FD7F070203CE62
:10027700900436E493F4FDE4FF1203CEE50975F02C
:100287000A1201EEFF3395E0FE741E2FF582740407
:100297003EF583E493F4FD7F031203CEE50975F081
:1002A7000A1201EEAFF0EF3395E0FE741E2FF582D0
:1002B70074043EF583E493F4FD7F041203CEE5084E
:1002C70075F00A1201EEFF3395E0FE1203BEE50852
:1002D70075F00A1201EEAFF0EF3395E0FE741E2FB2
:1002E700F58274043EF583E493F4FD7F070203CEA1
:100470008F1212055B7F901203F212053A7F401231
:1004800003F212053AAF121203F212053A02058F77
:1000D100D3E5096480F8E508648098400E7F041236
:1000E1000353D280D281D282C28322AF08EF3395EB
:1000F100E0FEC3E50F9FE50E9E50137F661204706C
:100101007F04120353D280D281C282D28322AF09EB
:10011100EF3395E0FED3E50F9FE50E9E40107FCDB6
:100121001204707F04120353C280D281802EAF0863
:10013100EF3395E0FED3EF950FEE950E5022AF0908
:10014100EF3395E0FED3E50F9FE50E9E50127F99A8
:100151001204707F04120353D280C281D282D283EF
:01016100227B
:0805A4007F6C7E91DEFEDFFC9E
:0105AC00222C
:1000030020B3391205A420B33320B305120577803A
:10001300F8050BE50BB40109E4F50C850810850917
:1000230011E50BB40216E4F50BD3E5096480F8E59A
:1000330008648098400685110985100820B21812BB
:1000430005A420B21220B20512057780F8050CE54D
:100053000CB40203E4F50C20B120E50BB4011B1230
:1000630005A420B11520B10512057780F8E50C70C1
:10007300020508E50CB40102050920B020E50BB424
:10008300011B1205A420B01520B00512057780F8D6
:10009300E50C70021508E50CB401021509D3E50956
:1000A300648094E34003750963D3E508648094E3B3
:1000B3004003750863C3E509648094805003E4F545
:0E00C30009C3E508648094805003E4F5082228
:0C057700E50BB401030202771203862298
:1005290012054B1200031202F71200D1120577804F
:01053900F2CF
:04058300D2A07F0A79
:0805870000AE071FEE70F9221F
:0F055B00D2A1120583C2A17F0A120587C2A02276
:0C058F00C2A1120583D2A17F0A020587D9
:1004FC00C2A0A20092A17F0A120587120583C2A096
:07050C00D2A17F0A0205875E
:10053A00120583A2A19201C2A07F0A120587A20115
:01054A00228E
:0203F200AD0755
:1003F400E4FCC2A07F0A120587ED30E704D2A18095
:1004040002C2A17F0A120587D2A0ED25E0FD7F0A72
:090414001205870CBC08DBC2A034
:01041D0022BC
:1004AE00E4FC120583ED25E0FD30A103430501C2F6
:0C04BE00A07F0A1205870CBC08E8AF05FF
:0104CA00220F
:040513007F057E00E2
:100517007C007D0A120210EF1FAC0670011E4C70A2
:02052700F622BA
:02049000AB07B8
:10049200E4FAC294EB139294120513D294EBC313B1
:0C04A200FB0ABA08ED7F057E000205177A
:1004CB00E4FAC294EBC313FBD2943094034303803E
:0904DB001205130ABA08EBAF0385
:0104E40022F5
:10044900C201D2947F0C7E00120517C2947F507EA0
:1004590000120517D2947F0A7E00120517A2949202
:0604690001120513A201BF
:01046F00226A
:0300000002016298
:0C016200787FE4F6D8FD7581200201A929
:1001EE00C2D530F707B2D563F0FF05F030E70CB299
:1001FE00D5F4048463F0FF05F080018430D502F459
:02020E000422C8
:10021000EF8DF0A4A8F0CF8CF0A428CE8DF0A42E02
:02022000FE22BC
:10022200BC000BBE0029EF8DF084FFADF022E4CCC0
:10023200F875F008EF2FFFEE33FEEC33FCEE9DEC89
:10024200984005FCEE9DFE0FD5F0E9E4CEFD22EDCF
:10025200F8F5F0EE8420D21CFEADF075F008EF2F19
:10026200FFED33FD4007985006D5F0F222C398FD0A
:050272000FD5F0EA22A7
:10016E00020529E493A3F8E493A34003F68001F279
:10017E0008DFF48029E493A3F85407240CC8C33392
:10018E00C4540F4420C8834004F456800146F6DF61
:10019E00E4800B010204081020408090056AE47E82
:1001AE00019360BCA3FF543F30E509541FFEE49356
:1001BE00A360010ECF54C025E060A840B8E493A31D
:1001CE00FAE493A3F8E493A3C8C582C8CAC583CA48
:1001DE00F0A3C8C582C8CAC583CADFE9DEE780BE00
:010576000084
:00000001FF
