:040BB000D2A07F054B
:080BB40000AE071FEE70F922EC
:0F0B9200D2A1120BB0C2A17F05120BB4C2A022D8
:0C0BBC00C2A1120BB0D2A17F05020BB445
:100B0D00C2A0A20092A17F05120BB4120BB0C2A01D
:070B1D00D2A17F05020BB419
:100B6100120BB0A2A19200C2A07F05120BB4A20089
:010B71002261
:02095900AD07E8
:10095B00E4FCC2A07F05120BB4ED30E704D2A180FA
:10096B0002C2A17F05120BB4D2A0ED25E0FD7F05DD
:09097B00120BB40CBC08DBC2A095
:010984002250
:100AD600E4FC120BB0ED25E0FD30A103430501C295
:0C0AE600A07F05120BB40CBC08E8AF05A3
:010AF20022E1
:100B4E00E4FEC297EF1392A3EFC313FFD2970EBE2C
:020B5E0008F09D
:010B60002272
:100B3A00C29300C29700D29300120B4EAF05120B5C
:040B4A004EC29322E2
:1008BE00E4FDC29300C29700D29300120B4EE4FFE8
:1008CE00C297EDC313FD30A303430580D2970FBF2C
:1008DE0008EEC29300C29700D29700C2A300D2A323
:0308EE0000AF0553
:0108F10022E4
:040B24007F057E00CB
:100B28007C007D0A1202EDEF1FAC0670011E4C70AE
:020B3800F622A3
:020A9A00AB07A8
:100A9C00E4FAC294EB139294120B24D294EBC3138A
:0C0AAC00FB0ABA08ED7F057E00020B2853
:100AF300E4FAC294EBC313FBD29430940343038010
:090B0300120B240ABA08EBAF033F
:010B0C0022C6
:100A2F00C200D2947F0C7E00120B28C2947F507E9E
:100A3F0000120B28D2947F0A7E00120B28A29492E8
:060A4F0000120B24A200BE
:010A5500227E
:1009DC003F065B4F666D7D077F6F777C395E797163
:1009EC000040761E7038375C733E783D6750376E2A
:0B09FC00BF86DBCFE6EDFD87FFEF4676
:10087E00012111012411012319012E190122040154
:10088E002C04013000013800013C00012D00013F15
:10089E0000014700072580828486888A8C07408164
:0F08AE00838587898B8D073150591610060122DB
:10092600EF24FB601314601914601F24037023E581
:10093600A0541F4480F5A022E5A0541F44A0F5A0B2
:1009460022E5A0541F44C0F5A022E5A0541F44E0B0
:03095600F5A022E7
:080BC8007F64AE071FEE70FA16
:010BD0002202
:08098500F583E493F4FD7F0605
:10098D00AE077F06120926AF067401A8070880027C
:10099D00C333D8FCF5807F071209268D80120BC852
:0409AD007580FF2230
:0F0BA1008F08AF081508EF600512083480F422A2
:1005B700120A2F7FCC120A9A7F44120A9A7F1412CA
:1005C7000BA1120A2F7FCC120A9A7FBE120A9A1227
:1005D7000AF38F39120AF38F2F753A008F3BE53BE9
:1005E700F53AE539F53BE53A54F8704DFCE53B54EF
:1005F7000FFDE4120211E4FBFA7920783F1201069D
:10060700C004C005C006C007E53AC4F854F0C8687E
:10061700FEE53BC4540F48FF7C007D0A1202EDAC97
:1006270006AD07E4120211D003D002D001D00012A8
:0A063700001512024A8E3A8F3B2292
:100732009009E8E493F4FDE4FF12098DAE3AAF3B71
:100742007C007D641202FF74DC2FF58274093EF591
:1007520083E493F4FD7F0512098DAE3AAF3B7C0032
:100762007D0A1202FF7C007D0A1202FF74FC2DF545
:100772008274093C120985AE3AAF3B7C007D0A12B5
:1007820002FF74DC2DF58274093CF583E493F4FDD9
:050792007F0702098D44
:1008F2009009F4E493F4FDE4FF12098D9009DEE41B
:1009020093F4FD7F0112098DE52375F00A849009A5
:10091200DC120988E52375F00A84E5F093F4FD7F83
:040922000702098D32
:0207E9008F0877
:1007EB00120B927F90120959120B61AF0812095923
:1007FB00120B61120B927F91120959120B61120AA3
:10080B00D67509008F0AD200120B0D120BBCAC0966
:10081B00AD0AE41202117B487AE179FA783F1201B2
:08082B000612024A8E3D8F3EC9
:0108330022A2
:100641009009EAE493F4FDE4FF12098DAE3DAF3E5B
:100651007C007D641202FF74FC2FF58274093EF563
:1006610083E493F4FD7F0212098DAE3DAF3E7C0021
:100671007D0A1202FF7C007D0A1202FF74DC2DF557
:100681008274093CF583E493F4FD7F0312098DAE76
:100691003DAF3E7C007D0A1202FF74DC2DF58274B1
:1006A100093CF583E493F4FD7F0412098DD3E53E03
:1006B10094E6E53D940040059009DC80039009DD56
:0A06C100E493F4FD7F0712098D2277
:100B7200758901758C3C758AAFD2A9D28CD2AF220D
:03000B00020A07DF
:100A0700C0E0C0D0758C3C758AAF053FE53FD394F5
:100A17003C4010753F00E53CB40105754701800374
:080A2700754700D0D0D0E03289
:1009B100E4FD7F8E120B3AE4F50874252508F8E66C
:1009C100FF74312508F8E6FD120B3A0508E508C366
:0B09D100940740E67D807F8E020B3A09
:100AB800E4F50874402508F8E6FF1208BE743125ED
:0D0AC80008F8A6070508E508C3940740E6F6
:010AD50022FE
:1006CB00E533C4540F9009DC93F4FDE4FF12098D5C
:1006DB00E533540F93F4FD7F0112098D9009EDE47E
:1006EB0093F4FD7F0212098DE532C4540F9009DC9F
:1006FB0093F4FD7F0312098DE532540F93F4FD7FC4
:10070B000412098D9009EDE493F4FD7F0512098D18
:10071B00E531C4540F9009DC120988E531540F936D
:07072B00F4FD7F0702098DB8
:100797009009F4E493F4FDE4FF12098D9009DDE478
:1007A70093F4FD7F0112098DE52175F00A1202CB42
:1007B700FF3395E0FE74DC2FF58274093E1209853C
:1007C700E52175F00A1202CBAFF0EF3395E0FE7426
:1007D700DC2FF58274093EF583E493F4FD7F07026D
:0207E700098D7A
:100A56009009F4E493F4FDE4FF12098D9009DFE4B4
:100A660093F4FD7F0112098DE5229009DC93F4FDD4
:050A76007F0702098D5D
:10083400E5307007E53870030206CBE5307008E553
:1008440038B40103020732E5307008E538B4020316
:10085400020641E530B40107E5387003020797E565
:1008640030B40108E538B401030208F2E530B401FC
:0A08740008E538B40203120A562208
:080BD1007F757EB8DEFEDFFC3B
:010BD90022F9
:10036200D2B0D2B1C2B2D2B3D2B4D2B5D2C2D2C456
:1003720020C423120BD120C41D20C4101205B77F44
:10038200011207E9120AB812083480ED0538E5387F
:10039200B40303E4F53820C24B120BD120C245202E
:1003A200C2101205B77F011207E9120AB812083407
:1003B20080EDE530602EE53870100521D3E521642B
:1003C200809497401FE4F521801AE538B4010405B2
:1003D200238011E538B4020C0522E522D3940840AB
:1003E20003752204D2B0D2B1D2B2C2B3D2B4D2B562
:1003F200D2C2D2C420C435120BD120C42F20C410C3
:100402001205B77F011207E9120AB812083480ED0B
:10041200E53070047F0180027F008F30E4F538E51B
:1004220030700985212485232E85222C20C2491271
:100432000BD120C24320C2101205B77F011207E977
:10044200120AB812083480EDE530602CE538700FDE
:100452001521C3E52164809480501D75211722E582
:1004620038B40103152322E538B4020C1522E52223
:09047200C3940450037522082212
:10047B00E533C4540F75F00AA4FFE533540F2FFF77
:10048B00E524FD3395E0FCEFC39DEC6480F87480AC
:10049B00984005EF9418400BEFD39400400FEF9466
:1004AB0008500A7F041209265380FE80087F04122D
:1004BB000926438001E52E75F00AA4FFC3E53B9F97
:1004CB00E53A95F07F0450081209265380FD80060B
:1004DB00120926438002D3E53E94E6E53D940040A5
:1004EB0005E4F53C801A753C017F04120926E52CC6
:1004FB0014FF7401A807088002C333D8FCF45280A0
:10050B00E52D653C6003E4F53F853C2DE5477F0415
:0F051B0060071209265380FB2212092643800431
:01052A0022AE
:100B82007F041209267580FF0F120926E4F58022E0
:100A7B00120B821209B1120B721205B77F0112070A
:0F0A8B00E9120AB812036212083412047B80EADF
:10000E000202B6E86480F8E933E83360110460F068
:10001E00ED33EC337009E8FCE9FDEAFEEBFF220458
:10002E0060DED3EB9FEA9EE99DE8C2E78CF0C2F753
:10003E0095F0400CE8CCF8E9CDF9EACEFAEBCFFB1F
:10004E0012028185D0F05804700320D5B3E80470F5
:10005E00075002B2D50202C092D5EC0460F7E4CC90
:10006E00C0E0C398F8603B94186008400DD0E0FBE8
:10007E00020298E4FBFAC9FC8028E830E406E4C9E1
:10008E00FBE4CAFCE830E305E4C9CACBFCE854073C
:10009E006010F8C3E913F9EA13FAEB13FBEC13FC47
:1000AE00D8F130F52FC3E49CFCEF9BFFEE9AFEEDEA
:1000BE0099FDD0E0FBEF4E4D4C701222DB03020295
:1000CE00BDEC2CFCEF33FFEE33FEED33FDED30E7F0
:1000DE00EB020298EF2BFFEE3AFEED39FDD0E0FB7E
:1000EE0050130BBB00030202C0ED13FDEE13FEEF27
:0800FE0013FFEC13FC02029851
:10010600EC4D6011E8497017ED33EC3304600DE4F3
:10011600FCFFFEFD22E933E8330470F80202B61252
:10012600028158046009E4CC248150062850090253
:1001360002C02840030202BDC0E0EB4A7044B98009
:1001460006D0E0FB0202ACEF4E701CBD8008EBFF50
:10015600EAFEE9FD80EBE98DF0A4FEE5F00201EF91
:10016600E9CDF9EAFEEBFFEF89F0A4FCE5F0CE89D4
:10017600F0A42EFFE435F0CD89F0A42DFEE435F091
:100186008067EF4E7005BD80D780C3EF8BF0A4ACBF
:10019600F0EE8BF0A42CFCE435F0F8EF8AF0A42CFA
:1001A600E5F038FCE433CB8DF0A42CFCE5F03BF80D
:1001B600EE8AF0A42CFCE5F038F8E433CF89F0A4FD
:1001C6002CFCE5F038CF3400CE89F0A42FFFE5F003
:1001D6003EFEE433C98DF0A42EFEE5F039CD8AF05B
:1001E600A42FFFE5F03EFEE43DFD33D0E0FB5007D3
:1001F6000BBB000F0202C0EC2CFCEF33FFEE33FE0C
:06020600ED33FD02029839
:10020C0075F020800E75F010800575F0087D007E6D
:10021C00007F003392D530D503120354EC334010D9
:10022C00EF33FFEE33FEED33FDEC33FCD5F0ED2276
:0E023C00E5F0247EA2D513CC92E7CDCEFF22B2
:10024A00EDD2E7CD33EC3392D524814006E4FFFEAC
:10025A00FDFC22FCE4CFCECDCC24E0501174FF800B
:10026A00EDC3CC13CCCD13CDCE13CECF13CF0470A8
:07027A00F030D5DE02035451
:10028100E9D2E7C933E833F892D5EDD2E7CD33ECC3
:0702910033FC5002B2D5223C
:10029800EC30E7100FBF000C0EBE00080DBD0004C7
:1002A8000BEB6014A2D5EB13FCED92E7FD2274FF73
:1002B800FCFDFEFF22E480F8A2D574FF13FC7D80CC
:0302C800E480EFE0
:0300000002052BCB
:0C052B00787FE4F6D8FD75814702057268
:1002CB00C2D530F707B2D563F0FF05F030E70CB2BB
:1002DB00D5F4048463F0FF05F080018430D502F47B
:0202EB000422EB
:1002ED00EF8DF0A4A8F0CF8CF0A428CE8DF0A42E25
:0202FD00FE22DF
:1002FF00BC000BBE0029EF8DF084FFADF022E4CCE3
:10030F00F875F008EF2FFFEE33FEEC33FCEE9DECAB
:10031F00984005FCEE9DFE0FD5F0E9E4CEFD22EDF1
:10032F00F8F5F0EE8420D21CFEADF075F008EF2F3B
:10033F00FFED33FD4007985006D5F0F222C398FD2C
:05034F000FD5F0EA22C9
:0E035400C3E49FFFE49EFEE49DFDE49CFC22BA
:10053700020A7BE493A3F8E493A34003F68001F255
:1005470008DFF48029E493A3F85407240CC8C333C5
:10055700C4540F4420C8834004F456800146F6DF94
:10056700E4800B010204081020408090087EE47E9E
:10057700019360BCA3FF543F30E509541FFEE49389
:10058700A360010ECF54C025E060A840B8E493A350
:10059700FAE493A3F8E493A3C8C582C8CAC583CA7B
:1005A700F0A3C8C582C8CAC583CADFE9DEE780BE33
:0108BD00003A
:00000001FF
