:100914003F065B4F666D7D077F6F777C395E79712B
:100924000040761E7038375C733E783D6750376EF2
:0B093400BF86DBCFE6EDFD87FFEF463E
:1007DD00012117013A00013B0001320001380001EF
:1007ED003C000129000139000135000144000134AC
:1007FD0000073D81838587898B8D072280828486C2
:0C080D00888A8C072B5059230905012212
:10088700EF24FB601314601914601F24037023E521
:10089700A0541F4480F5A022E5A0541F44A0F5A052
:1008A70022E5A0541F44C0F5A022E5A0541F44E050
:0308B700F5A02287
:08000E007F64AE071FEE70FADB
:0100160022C7
:0B08BA00E52CC4540F90091493F4FDCA
:1008C500AE077F06120887AF067401A807088002E5
:1008D500C333D8FCF5807F071208878D8012000E80
:0408E5007580FF22F9
:100A120075080075091EE5091509AE08700215086A
:080A22004E6005120A2B80EE64
:010A2A0022A9
:1005300012093F7FCC1209A47F441209A412093F7B
:100540007FCC1209A47FBE1209A4120A121209F864
:100550008F331209F88F2A7536008F37E537F53655
:10056000E533F537E53654F8704DFCE537540FFDAB
:10057000E4120221E4FBFA7920783F120116C0044C
:10058000C005C006C007E536C4F854F0C868FEE5EB
:1005900037C4540F48FF7C007D0A1202DBAC06AD65
:1005A00007E4120221D003D002D001D000120025AE
:0805B00012025A8E368F372229
:1004100012093F7FCC1209A47F441209A412093F9C
:100420007FCC1209A47FBE1209A41209F88F3312DF
:1004300009F88F2A7536008F37E537F536E533F53D
:1004400037E53654F8704DFCE537540FFDE41202E1
:1004500021E4FBFA7920783F120116C004C005C0E0
:1004600006C007E536C4F854F0C868FEE537C45442
:100470000F48FF7C007D0A1202DBAC06AD07E412D8
:100480000221D003D002D001D00012002512025A5E
:100490008E368F37E53764527004E5366403700397
:0404A0000204102220
:1005B80090092DE493F4FDE4FF1208C5900915E4B1
:1005C80093F4FD7F011208C5AE36AF377C007D6419
:1005D8001202ED74142FF58274093EF583E493F446
:1005E800FD7F051208C5AE36AF377C007D0A1202C2
:1005F800ED7C007D0A1202ED74342DF58274093CFD
:10060800F583E493F4FD7F061208C5AE36AF377C58
:10061800007D0A1202ED74142DF58274093CF583ED
:09062800E493F4FD7F070208C50C
:10081A0090092DE493F4FDE4FF1208C5900917E44A
:10082A0093F4FD7F011208C5E52175F00A84900949
:10083A001493F4FD7F061208C5E52175F00A84E5D4
:09084A00F093F4FD7F070208C5DC
:1008E900E4FD7F8E120A59E4F50874222508F8E61A
:1008F900FF742B2508F8E6FD120A590508E508C317
:0B090900940740E67D807F8E020A59B3
:10098600E4F508743D2508F8E6FF120853742B2594
:0D09960008F8A6070508E508C3940740E629
:0109A3002231
:1006FE0090092DE493F4FDE4FF1208C5900916E469
:10070E0093F4FD7F011208C5E52DC4540F90091412
:10071E0093F4FD7F031208C5E52D540F93F4FD7F6E
:10072E00041208C5900925E493F4FD7F051208C54F
:10073E007F061208BAE52C540F93F4FD7F070208CA
:01074E00C5E5
:10074F0090092DE493F4FDE4FF1208C5900916E417
:10075F0093F4FD7F011208C57F031208BAE52C54EC
:10076F000F93F4FD7F041208C5900925E493F4FD5F
:10077F007F051208C5E52BC4540F90091493F4FD9F
:10078F007F061208C5E52B540F93F4FD7F0702086F
:01079F00C594
:100A2B00E53A70031205B8E53AB401031206FEE588
:080A3B003AB4020312081A226A
:080A90007F757EB8DEFEDFFC7D
:010A9800223B
:10035000D2B0D2B1D2B2C2B3D2B4D2B5D2C2D2C468
:1003600020B41CE53AB40217120A9020B41120B44C
:1003700005120A2B80F8E521C39463500205212061
:10038000B518120A9020B51220B505120A2B80F874
:10039000053AE53AB40303E4F53AD2B0D2B1C2B2B9
:1003A000D2B3D2B4D2B5D2C2D2C420B524120A90EC
:1003B00020B51E20B505120A2B80F8E53B70047F9E
:1003C0000180027F008F3B7F05120887E4F580F5EE
:1003D0002920B41CE53AB40217120A9020B4112067
:1003E000B405120A2B80F8E521D3940A40021521A6
:1003F00020B41CE53AB40117120A9020B41120B4BD
:100400000E1209861206A812063112074F80EF223B
:1006A800E53B7028E52175F00AA4FFD3E5379FE5FF
:1006B8003695F0400D7529017F05120887D284C24E
:1006C8008622E4F5297F051208878025E52B70121C
:1006D800E52C700ED28C7529017F05120887D2840B
:1006E800C286E532600FE4F5327F05120887E4F52B
:0606F80029C284C2862223
:10063100E52B7007E52C7003753C01E53C60117FEB
:1006410004120887C280D283D284D285D286D2870F
:10065100E5356016E4F53CF5357F04120887D28054
:10066100D283D284D285D286D287E53B7F047007BC
:10067100120887C2818005120887D281D283D28471
:10068100D285D286D287E529601CE5447F046007C4
:10069100120887D2828005120887C282D283D2844F
:0706A100D285D286D2872228
:1009DE00758911758C3C758AAF758D3C758BAFD250
:0A09EE00A9C28CD2ABD28ED2AF2288
:100A80007F041208877580FF0F120887E4F5802223
:10096600120A801204101209DE1208E9120350124C
:100976000530120986120A2B1206A812063180ECDF
:03000B000209C225
:1009C200C0E0C0D00538758C3C758AAFE538B46498
:0C09D20006753800753201D0D0D0E0323C
:03001B000207A039
:1007A000C0E0C0D075D000C007E53C600205390547
:1007B00034758D3C758BAFE539B4640675390075B9
:1007C0003501E534B4020F753400E54470047F014F
:0D07D00080027F008F44D007D0D0D0E032EF
:100A6D00E4FEC297EF1392A3EFC313FFD2970EBE0E
:020A7D0008F07F
:010A7F002254
:100A5900C29300C29700D29300120A6DAF05120A21
:040A69006DC29322A5
:10085300E4FDC29300C29700D29300120A6DE4FF35
:10086300C297EDC313FD30A303430580D2970FBF97
:1008730008EEC29300C29700D29700C2A300D2A38E
:0308830000AF05BE
:01088600224F
:040A43007F057E00AD
:100A47007C007D0A1202DBEF1FAC0670011E4C70A2
:020A5700F62285
:0209A400AB079F
:1009A600E4FAC294EB139294120A43D294EBC31363
:0C09B600FB0ABA08ED7F057E00020A472C
:1009F800E4FAC294EBC313FBD2943094034303800C
:090A0800120A430ABA08EBAF031D
:010A110022C2
:10093F00C200D2947F0C7E00120A47C2947F507E71
:10094F0000120A47D2947F0A7E00120A47A294929D
:06095F0000120A43A20091
:01096500226F
:10001E000202C6E86480F8E933E83360110460F048
:10002E00ED33EC337009E8FCE9FDEAFEEBFF220448
:10003E0060DED3EB9FEA9EE99DE8C2E78CF0C2F743
:10004E0095F0400CE8CCF8E9CDF9EACEFAEBCFFB0F
:10005E0012029185D0F05804700320D5B3E80470D5
:10006E00075002B2D50202D092D5EC0460F7E4CC70
:10007E00C0E0C398F8603B94186008400DD0E0FBD8
:10008E000202A8E4FBFAC9FC8028E830E406E4C9C1
:10009E00FBE4CAFCE830E305E4C9CACBFCE854072C
:1000AE006010F8C3E913F9EA13FAEB13FBEC13FC37
:1000BE00D8F130F52FC3E49CFCEF9BFFEE9AFEEDDA
:1000CE0099FDD0E0FBEF4E4D4C701222DB03020285
:1000DE00CDEC2CFCEF33FFEE33FEED33FDED30E7D0
:1000EE00EB0202A8EF2BFFEE3AFEED39FDD0E0FB5E
:1000FE0050130BBB00030202D0ED13FDEE13FEEF07
:08010E0013FFEC13FC0202A830
:10011600EC4D6011E8497017ED33EC3304600DE4E3
:10012600FCFFFEFD22E933E8330470F80202C61232
:10013600029158046009E4CC248150062850090233
:1001460002D02840030202CDC0E0EB4A7044B980D9
:1001560006D0E0FB0202BCEF4E701CBD8008EBFF30
:10016600EAFEE9FD80EBE98DF0A4FEE5F00201FF71
:10017600E9CDF9EAFEEBFFEF89F0A4FCE5F0CE89C4
:10018600F0A42EFFE435F0CD89F0A42DFEE435F081
:100196008067EF4E7005BD80D780C3EF8BF0A4ACAF
:1001A600F0EE8BF0A42CFCE435F0F8EF8AF0A42CEA
:1001B600E5F038FCE433CB8DF0A42CFCE5F03BF8FD
:1001C600EE8AF0A42CFCE5F038F8E433CF89F0A4ED
:1001D6002CFCE5F038CF3400CE89F0A42FFFE5F0F3
:1001E6003EFEE433C98DF0A42EFEE5F039CD8AF04B
:1001F600A42FFFE5F03EFEE43DFD33D0E0FB5007C3
:100206000BBB000F0202D0EC2CFCEF33FFEE33FEEB
:06021600ED33FD0202A819
:10021C0075F020800E75F010800575F0087D007E5D
:10022C00007F003392D530D503120342EC334010DB
:10023C00EF33FFEE33FEED33FDEC33FCD5F0ED2266
:0E024C00E5F0247EA2D513CC92E7CDCEFF22A2
:10025A00EDD2E7CD33EC3392D524814006E4FFFE9C
:10026A00FDFC22FCE4CFCECDCC24E0501174FF80FB
:10027A00EDC3CC13CCCD13CDCE13CECF13CF047098
:07028A00F030D5DE02034253
:10029100E9D2E7C933E833F892D5EDD2E7CD33ECB3
:0702A10033FC5002B2D5222C
:1002A800EC30E7100FBF000C0EBE00080DBD0004B7
:1002B8000BEB6014A2D5EB13FCED92E7FD2274FF63
:1002C800FCFDFEFF22E480F8A2D574FF13FC7D80BC
:0302D800E480EFD0
:030000000204A453
:0C04A400787FE4F6D8FD7581440204EB7B
:1002DB00EF8DF0A4A8F0CF8CF0A428CE8DF0A42E37
:0202EB00FE22F1
:1002ED00BC000BBE0029EF8DF084FFADF022E4CCF5
:1002FD00F875F008EF2FFFEE33FEEC33FCEE9DECBE
:10030D00984005FCEE9DFE0FD5F0E9E4CEFD22ED03
:10031D00F8F5F0EE8420D21CFEADF075F008EF2F4D
:10032D00FFED33FD4007985006D5F0F222C398FD3E
:05033D000FD5F0EA22DB
:0E034200C3E49FFFE49EFEE49DFDE49CFC22CC
:1004B000020966E493A3F8E493A34003F68001F2F3
:1004C00008DFF48029E493A3F85407240CC8C3334D
:1004D000C4540F4420C8834004F456800146F6DF1C
:1004E000E4800B01020408102040809007DDE47EC8
:1004F000019360BCA3FF543F30E509541FFEE49311
:10050000A360010ECF54C025E060A840B8E493A3D7
:10051000FAE493A3F8E493A3C8C582C8CAC583CA02
:10052000F0A3C8C582C8CAC583CADFE9DEE780BEBA
:0108190000DE
:00000001FF
