:1007F9003F065B4F666D7D077F6F777C395E797148
:100809000040761E7038375C733E783D6750376E0E
:0B081900BF86DBCFE6EDFD87FFEF465A
:0C098B00011300010819010E00010F000B
:10079A00EF24FB601314601914601F24037023E50F
:1007AA00A0541F4480F5A022E5A0541F44A0F5A040
:1007BA0022E5A0541F44C0F5A022E5A0541F44E03E
:0307CA00F5A02275
:0809B0007F64AE071FEE70FA30
:0109B800221C
:100900008E148F15E5151515AE14700215144E6072
:07091000051208E880EE2249
:10071B007C007D0A1202D27C007D0A1202D274F98F
:0E072B002DF58274073CF583E493F4FD7F0600
:10073900AE077F0612079AAF067401A80708800260
:10074900C333D8FCF5807F0712079A8D801209B050
:040759007580FF2286
:1004790012084C7FCC1208937F4412089312084C3F
:100489007FCC1208937FBE1208931208CE8F1012E8
:1004990008CE8F0D7511008F12E512F511E510F5D3
:1004A90012E51154F8704DFCE512540FFDE41202E7
:1004B90006E4FBFA79C878401200FBC004C005C005
:1004C90006C007E511C4F854F0C868FEE512C45423
:1004D9000F48FF7C007D641202C0AC06AD07E41230
:1004E9000206D003D002D001D00012000A12023F46
:1004F9008E118F12E51264347004E51164217003C2
:04050900020479224D
:10050D0012084C7FCC1208937F441208937F147EFF
:10051D000012090012084C7FCC1208937FBE1208FE
:10052D00931208CE8F101208CE8F0D7511008F12F9
:10053D00E512F511E510F512E51154F8704DFCE5D5
:10054D0012540FFDE4120206E4FBFA79C87840124A
:10055D0000FBC004C005C006C007E511C4F854F087
:10056D00C868FEE512C4540F48FF7C007D6412027A
:10057D00C0AC06AD07E4120206D003D002D001D004
:0C058D000012000A12023F8E118F122291
:1006A700900805E493F4FDE4FF120739AE11AF1289
:1006B7007C037DE81202D274F92FF58274073EF5A8
:1006C70083E493F4FD7F04120739AE11AF127C0067
:1006D7007D641202D27C007D0A1202D274192DF5B4
:1006E7008274083CF583E493F4FD7F05120739AE65
:1006F70011AF1212071BAE11AF127C007D0A120256
:10070700D274F92DF58274073CF583E493F4FD7FE9
:040717000702073995
:10082400900811E493F4FDE4FF120739E51375F021
:100834000A849007F9120734E51375F00A84E5F089
:0808440093F4FD7F0702073960
:100873008F1412097C7F901207CD12095B7F4012FF
:1008830007CD12095BAF141207CD12095B0209A44D
:10033500E50F702CE50875F064A4FFC3E5129FE591
:100345001195F0E4500CF50CF50BF50AF509FF02D3
:1003550003DCF50CF50B750AA07509407FFF807766
:10036500D3E51294D0E5119407500FE4F50CF50B85
:10037500750A8075093F7F33805DD3E51294D0E51A
:100385001194074045E51294A0E511940F503BAC3C
:1003950011AD12E41202067BA67A9B79C4783A1253
:1003A50000FBE4FBFAF978C012000A8F0C8E0B8D66
:1003B5000A8C09E4FFFE7D4C7C42AB0CAA0BA90A12
:1003C500A8091200FB12023F800DE4F50CF50B7530
:0B03D5000A807509407FCC12087322DB
:10062500900803E493F4FDE4FF120739E4FFFE7D2F
:10063500C87C42AB0CAA0BA90AA8091200FB12023E
:100645003F7C007D641202D274192FF58274083E36
:10065500F583E493F4FD7F05120739E4FFFE7DC8B9
:100665007C42AB0CAA0BA90AA8091200FB12023F97
:1006750012071BE4FFFE7DC87C42AB0CAA0BA90A3E
:10068500A8091200FB12023F7C007D0A1202D274F7
:10069500F92DF58274073CF583E493F4FD7F070299
:0206A500073913
:1008E800E50E70031206A7E50EB40103120824E50D
:0808F8000EB4020312062522D2
:0809B9007F757EB8DEFEDFFC55
:0109C1002213
:1003E000D2B0D2B1C2B2D2B3D2B4D2B5D2C2D2C4D8
:1003F00020C41A1209B920C41420C4051208E880C8
:10040000F8E50F70047F0180027F008F0F20C21576
:10041000E50EB401101209B920C20A20C205120863
:10042000E880F80513D2B0D2B1D2B2C2B3D2B4D2FE
:10043000B5D2C2D2C420C4281209B920C42220C413
:10044000051208E880F8050EE50EB40303E4F50E86
:10045000E50EB40103850813E50EB4020385130805
:1004600020C215E50EB401101209B920C20A20C23B
:09047000051208E880F8151322BA
:10075D00E50F7F04700712079AC280800512079A71
:10076D00D280E50E700C7F0412079AC281D282D21C
:10077D008322E50E7F04B4010A12079AD281C28248
:0D078D00D2832212079AD281D282C2832227
:10096C007F0412079A7580FF0F12079AE4F5802214
:1009170012096C12047912050D1203E01203351245
:0709270008E812075D80EFF4
:04099800D2A07F0565
:08099C0000AE071FEE70F92206
:0F097C00D2A1120998C2A17F0512099CC2A02224
:0C09A400C2A1120998D2A17F0502099C93
:10092E00C2A0A20092A17F0512099C120998C2A032
:07093E00D2A17F0502099C14
:10095B00120998A2A19201C2A07F0512099CA201C3
:01096B002269
:0207CD00AD0776
:1007CF00E4FCC2A07F0512099CED30E704D2A180A2
:1007DF0002C2A17F0512099CD2A0ED25E0FD7F0585
:0907EF0012099C0CBC08DBC2A03D
:0107F80022DE
:1008B100E4FC120998ED25E0FD30A103430501C2D6
:0C08C100A07F0512099C0CBC08E8AF05E4
:0108CD002208
:040945007F057E00AC
:100949007C007D0A1202C0EF1FAC0670011E4C70BC
:02095900F62284
:02089300AB07B1
:10089500E4FAC294EB139294120945D294EBC31374
:0C08A500FB0ABA08ED7F057E000209493D
:1008CE00E4FAC294EBC313FBD29430940343038037
:0908DE001209450ABA08EBAF0348
:0108E70022EE
:10084C00C201D2947F0C7E00120949C2947F507E63
:10085C0000120949D2947F0A7E00120949A294928F
:06086C0001120945A20182
:010872002263
:100003000202ABE86480F8E933E83360110460F07E
:10001300ED33EC337009E8FCE9FDEAFEEBFF220463
:1000230060DED3EB9FEA9EE99DE8C2E78CF0C2F75E
:1000330095F0400CE8CCF8E9CDF9EACEFAEBCFFB2A
:1000430012027685D0F05804700320D5B3E804700B
:10005300075002B2D50202B592D5EC0460F7E4CCA6
:10006300C0E0C398F8603B94186008400DD0E0FBF3
:1000730002028DE4FBFAC9FC8028E830E406E4C9F7
:10008300FBE4CAFCE830E305E4C9CACBFCE8540747
:100093006010F8C3E913F9EA13FAEB13FBEC13FC52
:1000A300D8F130F52FC3E49CFCEF9BFFEE9AFEEDF5
:1000B30099FDD0E0FBEF4E4D4C701222DB030202A0
:1000C300B2EC2CFCEF33FFEE33FEED33FDED30E706
:1000D300EB02028DEF2BFFEE3AFEED39FDD0E0FB94
:1000E30050130BBB00030202B5ED13FDEE13FEEF3D
:0800F30013FFEC13FC02028D67
:1000FB00EC4D6011E8497017ED33EC3304600DE4FF
:10010B00FCFFFEFD22E933E8330470F80202AB1268
:10011B00027658046009E4CC248150062850090269
:10012B0002B52840030202B2C0E0EB4A7044B9802A
:10013B0006D0E0FB0202A1EF4E701CBD8008EBFF66
:10014B00EAFEE9FD80EBE98DF0A4FEE5F00201E4A7
:10015B00E9CDF9EAFEEBFFEF89F0A4FCE5F0CE89DF
:10016B00F0A42EFFE435F0CD89F0A42DFEE435F09C
:10017B008067EF4E7005BD80D780C3EF8BF0A4ACCA
:10018B00F0EE8BF0A42CFCE435F0F8EF8AF0A42C05
:10019B00E5F038FCE433CB8DF0A42CFCE5F03BF818
:1001AB00EE8AF0A42CFCE5F038F8E433CF89F0A408
:1001BB002CFCE5F038CF3400CE89F0A42FFFE5F00E
:1001CB003EFEE433C98DF0A42EFEE5F039CD8AF066
:1001DB00A42FFFE5F03EFEE43DFD33D0E0FB5007DE
:1001EB000BBB000F0202B5EC2CFCEF33FFEE33FE22
:0601FB00ED33FD02028D50
:1002010075F020800E75F010800575F0087D007E78
:10021100007F003392D530D503120327EC33401011
:10022100EF33FFEE33FEED33FDEC33FCD5F0ED2281
:0E023100E5F0247EA2D513CC92E7CDCEFF22BD
:10023F00EDD2E7CD33EC3392D524814006E4FFFEB7
:10024F00FDFC22FCE4CFCECDCC24E0501174FF8016
:10025F00EDC3CC13CCCD13CDCE13CECF13CF0470B3
:07026F00F030D5DE02032789
:10027600E9D2E7C933E833F892D5EDD2E7CD33ECCE
:0702860033FC5002B2D52247
:10028D00EC30E7100FBF000C0EBE00080DBD0004D2
:10029D000BEB6014A2D5EB13FCED92E7FD2274FF7E
:1002AD00FCFDFEFF22E480F8A2D574FF13FC7D80D7
:0302BD00E480EFEB
:030000000205995D
:0C059900787FE4F6D8FD7581200205E0B3
:1002C000EF8DF0A4A8F0CF8CF0A428CE8DF0A42E52
:0202D000FE220C
:1002D200BC000BBE0029EF8DF084FFADF022E4CC10
:1002E200F875F008EF2FFFEE33FEEC33FCEE9DECD9
:1002F200984005FCEE9DFE0FD5F0E9E4CEFD22ED1F
:10030200F8F5F0EE8420D21CFEADF075F008EF2F68
:10031200FFED33FD4007985006D5F0F222C398FD59
:050322000FD5F0EA22F6
:0E032700C3E49FFFE49EFEE49DFDE49CFC22E7
:1005A500020917E493A3F8E493A34003F68001F24C
:1005B50008DFF48029E493A3F85407240CC8C33357
:1005C500C4540F4420C8834004F456800146F6DF26
:1005D500E4800B010204081020408090098BE47E22
:1005E500019360BCA3FF543F30E509541FFEE4931B
:1005F500A360010ECF54C025E060A840B8E493A3E2
:10060500FAE493A3F8E493A3C8C582C8CAC583CA0C
:10061500F0A3C8C582C8CAC583CADFE9DEE780BEC4
:01099700005F
:00000001FF
