:0408B300D2A07F054B
:0808B70000AE071FEE70F922EC
:0F08A400D2A11208B3C2A17F051208B7C2A022C9
:0C08BF00C2A11208B3D2A17F050208B745
:10084200C2A0A20592A17F051208B71208B3C2A0E6
:07085200D2A17F050208B7E7
:100882001208B3A2A19205C2A07F051208B7A20561
:010892002243
:02071B00AD0728
:10071D00E4FCC2A07F051208B7ED30E704D2A1803A
:10072D0002C2A17F051208B7D2A0ED25E0FD7F051D
:09073D001208B70CBC08DBC2A0D5
:010746002290
:10080900E4FC1208B3ED25E0FD30A103430501C264
:0C081900A07F051208B70CBC08E8AF0572
:0108250022B0
:100773003F065B4F666D7D077F6F777C395E7971CE
:100783000040761E7038375C733E783D6750376E95
:0B079300BF86DBCFE6EDFD87FFEF46E1
:100747000A0C00000000000000000000010900C1C1
:1007570080C102010B00011600C101011814010A32
:0B07670014C103011700C104010800C9
:10068B00EF24FB601314601914601F24037023E51F
:10069B00A0541F4480F5A022E5A0541F44A0F5A050
:1006AB0022E5A0541F44C0F5A022E5A0541F44E04E
:0306BB00F5A02285
:0808CB007F64AE071FEE70FA16
:0108D3002202
:1005B900740C2CF8E675F0648490077393F4FD7F4E
:1005C900051205F4740C2CF8E675F00A8475F00A26
:1005D90084E5F093F4FD7F061205F4740C2CF8E61B
:0B05E90075F00A84E5F093F4FD7F0735
:1005F400AE077F0612068BAF067401A807088002B7
:10060400C333D8FCF5807F0712068B8D801208CB8C
:040614007580FF22CC
:070003000000007F1EDFFE7C
:01000A0022D3
:10089300E4FED290120003C2901200030EBE08F2CF
:0108A3002232
:1005520012089353890FE4F58DF58BD28E309103F7
:10056200308FFAC28E208F25AF8DEFFEAD8BEDFF5F
:10057200AC06E41201197B967A43798B783C12001F
:100582000E120152740C2509F8A6078009C28F7455
:100592000C2509F876FFE5092402FF740C2509F8F9
:1005A200E6FD1207C71208D4D2030509E509D39460
:0605B200094003E4F50915
:0105B8002220
:10026C00200267900773E493F4FDE4FF1205F4E5B4
:10027C000970047C098004E50914FC1205B9EC70C2
:10028C00047C0980011C740C2CF8E6FFD3946340A9
:10029C0010EF75F0648490077393F4FD7F021205E0
:1002AC00F4740C2CF8E6FFD394094016EF75F00AA1
:1002BC008475F00A84E5F090077393F4FD7F0312C4
:1002CC0005F4740C2CF8E6020338900774E493F4EC
:1002DC00FDE4FF1205F4E50970047C098004E509CE
:1002EC0014FC1205B9740C2CF8E6FBEC70047C09B8
:1002FC0080011C740C2CF8E62BFBD394634010EBA0
:10030C0075F0648490077393F4FD7F021205F4EB8F
:10031C00D394094016EB75F00A8475F00A84E5F065
:10032C0090077393F4FD7F031205F4EB75F00A84C8
:0D033C00E5F090077393F4FD7F041205F4C3
:010349002291
:10046400E5162401FFE433FE7C007D0A1201D374F7
:10047400732FF58274073EF583E493F4FDE4FF12D1
:1004840005F4E5162401FFE433FE7C007D0A120125
:10049400D374732DF58274073CF583E493F4FD7FE4
:1004A400011205F4740C2516F8E675F064849007BF
:1004B4007393F4FD7F051205F4740C2516F8E675A4
:1004C400F00A8475F00A84E5F093F4FD7F061205C2
:1004D400F4740C2516F8E675F00A84E5F093F4FD3F
:0504E4007F070205F492
:1006EE00900782E493F4FDE4FF1205F4E51875F02B
:1006FE000A8490077393F4FD7F061205F4E51875CE
:0D070E00F00A84E5F093F4FD7F070205F486
:10082600E50B700620010302026CE50BB4010620FD
:0C08360001030204643001031206EE22EC
:1007E9008F1A1208A47F9012071B1208827F4012E9
:1007F900071B120882AF1A12071B1208820208BFD0
:1004E900E50970057519098005E50914F519740CF4
:1004F9002519F8E6D3950A5004E4FF8048740C25C1
:1005090019F8E6C3950AFDE49400FCE41201197B8D
:100519000A7AD779A3783C12000E120152EFD394CC
:100529000540027F05740C2519F8E6C3950AFDE418
:100539009400FCE41201197B5C7A8F7982783F126E
:08054900000E1201521207E935
:010551002287
:0808D4007F367EC7DEFEDFFC6B
:0108DC0022F9
:1007C7008F198D1A1208A47FA012071B120882AF77
:1007D7001912071B120882AF1A12071B120882028E
:0207E70008BF49
:0206BE008F1A91
:1006C0001208A47FA012071B120882AF1A12071B80
:1006D0001208821208A47FA112071B1208821208B6
:0D06E000098F1BD2051208421208BFAF1B84
:0106ED0022EA
:10085900E58954F04401F589758C3C758AB0D2A9B3
:05086900C28CD2AF2299
:03000B0002079E4B
:04079E00C0E0C0D027
:1007A200758C3C758AB00517E517B404130508E586
:1007B20008B41407750800C203C28C751700B2048E
:0507C200D0D0D0E032B0
:10061800300313D28C7F0430040712068BC280800B
:100628000512068BD2807F0430010712068BC28622
:10063800800512068BD28620010CE50B60087F042A
:0E06480012068BC287227F0412068BD28722F5
:0808DD007F6C7E91DEFEDFFC62
:0108E50022F0
:10034A0020B3111208DD20B30B20B3051208268052
:10035A00F812055220B21A1208DD20B21420B20592
:10036A0012082680F8E50B70047F0180027F008F57
:10037A000B20B1161208DD20B11020B10512082693
:10038A0080F8B20120010385180A20B0401208DD66
:10039A0020B03A20B00512082680F8200117E50B94
:1003AA007002B202E50B60250516E516D3940940E2
:1003BA001CE4F51622740A2518F518D3945A40033A
:0E03CA00E4F518AD187F011207C71208D422FF
:100656007F0412068B7580FF0F12068BE4F5807FF0
:10066600011206BE8F0A850A18E4F519E519240257
:10067600FF1206BE740C2519F8A6070519E519C35D
:04068600940840E8AC
:01068A00224D
:10086E0012065612085912034A1206181204E912F9
:04087E00082680F2D6
:10000E00EC4D6011E8497017ED33EC3304600DE4EC
:10001E00FCFFFEFD22E933E8330470F80201BE1244
:10002E00018958046009E4CC248150062850090245
:10003E0001C82840030201C5C0E0EB4A7044B980F4
:10004E0006D0E0FB0201B4EF4E701CBD8008EBFF42
:10005E00EAFEE9FD80EBE98DF0A4FEE5F00200F783
:10006E00E9CDF9EAFEEBFFEF89F0A4FCE5F0CE89CD
:10007E00F0A42EFFE435F0CD89F0A42DFEE435F08A
:10008E008067EF4E7005BD80D780C3EF8BF0A4ACB8
:10009E00F0EE8BF0A42CFCE435F0F8EF8AF0A42CF3
:1000AE00E5F038FCE433CB8DF0A42CFCE5F03BF806
:1000BE00EE8AF0A42CFCE5F038F8E433CF89F0A4F6
:1000CE002CFCE5F038CF3400CE89F0A42FFFE5F0FC
:1000DE003EFEE433C98DF0A42EFEE5F039CD8AF054
:1000EE00A42FFFE5F03EFEE43DFD33D0E0FB5007CC
:1000FE000BBB000F0201C8EC2CFCEF33FFEE33FEFE
:06010E00ED33FD0201A02B
:1001140075F020800E75F010800575F0087D007E66
:10012400007F003392D530D503120209EC3340101E
:10013400EF33FFEE33FEED33FDEC33FCD5F0ED226F
:0E014400E5F0247EA2D513CC92E7CDCEFF22AB
:10015200EDD2E7CD33EC3392D524814006E4FFFEA5
:10016200FDFC22FCE4CFCECDCC24E0501174FF8004
:10017200EDC3CC13CCCD13CDCE13CECF13CF0470A1
:07018200F030D5DE02020996
:10018900E9D2E7C933E833F892D5EDD2E7CD33ECBC
:0701990033FC5002B2D52235
:1001A000EC30E7100FBF000C0EBE00080DBD0004C0
:1001B0000BEB6014A2D5EB13FCED92E7FD2274FF6C
:1001C000FCFDFEFF22E480F8A2D574FF13FC7D80C5
:0301D000E480EFD9
:030000000203D820
:0C03D800787FE4F6D8FD75812002041F38
:1001D300C2D5EC30E709B2D5E4C39DFDE49CFCEE47
:1001E30030E715B2D5E4C39FFFE49EFE120217C3A6
:1001F300E49DFDE49CFC800312021730D507C3E4A1
:060203009FFFE49EFE22B5
:0E020900C3E49FFFE49EFEE49DFDE49CFC2206
:1003E40002086EE493A3F8E493A34003F68001F2B9
:1003F40008DFF48029E493A3F85407240CC8C3331A
:10040400C4540F4420C8834004F456800146F6DFE8
:10041400E4800B0102040810204080900747E47E2A
:10042400019360BCA3FF543F30E509541FFEE493DD
:10043400A360010ECF54C025E060A840B8E493A3A4
:10044400FAE493A3F8E493A3C8C582C8CAC583CACF
:10045400F0A3C8C582C8CAC583CADFE9DEE780BE87
:010772000086
:10021700BC000BBE0029EF8DF084FFADF022E4CCCB
:10022700F875F008EF2FFFEE33FEEC33FCEE9DEC94
:10023700984005FCEE9DFE0FD5F0E9E4CEFD22EDDA
:10024700F8F5F0EE8420D21CFEADF075F008EF2F24
:10025700FFED33FD4007985006D5F0F222C398FD15
:050267000FD5F0EA22B2
:00000001FF
