:10018D003F065B4F666D7D077F6F777C395E7971BA
:10019D000040761E7038375C733E783D6750376E81
:0B01AD00BF86DBCFE6EDFD87FFEF46CD
:1000C900014000014A00012200013F00012C00010A
:1000D9002B00012A00012100074180828486888A39
:1000E9008C073181838587898B8D0738455923078B
:0300F900050622D7
:07008F001200967580FF0FBF
:10009600EF24FB601314601914601F24037023E51A
:1000A600A0541F4480F5A022E5A0541F44A0F5A04B
:1000B60022E5A0541F44C0F5A022E5A0541F44E049
:0300C600F5A02280
:080373007F64AE071FEE70FA73
:01037B00225F
:1001DF00AE077F06120096AF067401A807088002CB
:1001EF00C333D8FCF5807F071200968D80120373FE
:0401FF007580FF22E6
:08037C007F6C7E91DEFEDFFCC8
:010384002256
:100331007F0412008FE4F5800F12008F7580FF2279
:0A03680000007F3B7E59DEFEDFFC43
:010372002268
:100131008F081203417FA0120161120320AF081240
:10014100016112032012035C1203417FA1120161BC
:100151001203201202838F27D2011202BA02035C1A
:100203008F088D091203417FA0120161120320AFF1
:1002130008120161120320AF0912016112032002C7
:02022300035C7A
:10022500E52775F00A8490018D93F4FD7F06120190
:10023500DFE52775F00A84E5F093F4FD7F070201F9
:01024500DFD9
:100246001203681203317F01120131120368052778
:0F025600AD277F0112020312036812022580FBFD
:0402D1007F057E0027
:1002D5007C007D0A12030EEF1FAC0670011E4C70E8
:0202E500F622FF
:02026500AB07E5
:10026700E4FAC294EB1392941202D1D294EBC31323
:0C027700FB0ABA08ED7F057E000202D5EC
:1002A000E4FAC294EBC313FBD2943094034303806B
:0902B0001202D10ABA08EBAF03F7
:0102B9002222
:1001B800C200D2947F0C7E001202D5C2947F507E7A
:1001C800001202D5D2947F0A7E001202D5A2949220
:0601D800001202D1A2009A
:0101DE0022FE
:1002FB00E4FEC297EF1392A3EFC313FFD2970EBE88
:02030B0008F0F8
:01030D0022CD
:1002E700C29300C29700D293001202FBAF0512021D
:0402F700FBC2932291
:1000FD00E4FDC29300C29700D293001202FBE4FF0D
:10010D00C297EDC313FD30A303430580D2970FBFF4
:10011D0008EEC29300C29700D29700C2A300D2A3EB
:03012D0000AF051B
:0101300022AC
:04035000D2A07F05B3
:0803540000AE071FEE70F92254
:0F034100D2A1120350C2A17F05120354C2A02201
:0C035C00C2A1120350D2A17F050203547D
:1002BA00C2A0A20192A17F05120354120350C2A048
:0702CA00D2A17F05020354DD
:10032000120350A2A19201C2A07F05120354A201A0
:0103300022AA
:02016100AD07E8
:10016300E4FCC2A07F05120354ED30E704D2A18062
:1001730002C2A17F05120354D2A0ED25E0FD7F0545
:090183001203540CBC08DBC2A0FD
:01018C002250
:10028300E4FC120350ED25E0FD30A103430501C258
:0C029300A07F051203540CBC08E8AF0566
:01029F00223C
:03000000020003F8
:0C000300787FE4F6D8FD75814A02004ABF
:10030E00EF8DF0A4A8F0CF8CF0A428CE8DF0A42E03
:02031E00FE22BD
:10000F00020246E493A3F8E493A34003F68001F2BF
:10001F0008DFF48029E493A3F85407240CC8C333F2
:10002F00C4540F4420C8834004F456800146F6DFC1
:10003F00E4800B01020408102040809000C9E47E88
:10004F00019360BCA3FF543F30E509541FFEE493B6
:10005F00A360010ECF54C025E060A840B8E493A37D
:10006F00FAE493A3F8E493A3C8C582C8CAC583CAA8
:10007F00F0A3C8C582C8CAC583CADFE9DEE780BE60
:0100FC000003
:00000001FF
