:1008AA00C0F9A4B0999282F880908880C6C0868EDA
:0208BA00BF7FFE
:100891007D607CEAEF1FAA0670011E4A70F6ED1D0D
:0808A100AE0470011C4E70F65C
:0108A900222C
:10083B00EF24FB601314601914601F24037023E56D
:10084B00A0541F4480F5A022E5A0541F44A0F5A09E
:10085B0022E5A0541F44C0F5A022E5A0541F44E09C
:03086B00F5A022D3
:0908C8007F0512083BE4F58022D3
:10086E00AE077F0612083BAF067401A80708800288
:10087E00C333D8FCF5807F0712083BED9008AA938E
:03088E00F58022D0
:10080000E4FBE4F9AF03AD0112086E7F607EEA12EB
:10081000089109B90AEE0BBB08E87F0612083B7580
:1008200080FF0F12083BE4FBEB9008AA93F5807F52
:0A083000607EEA1208910BBB12EE85
:01083A00229B
:0808D1001208C812080080FBA8
:030000000208BC37
:0C08BC00787FE4F6D8FD7581070208D1B2
:00000001FF
