:100955003F065B4F666D7D077F6F777C395E7971EA
:100965000040761E7038375C733E783D6750376EB1
:0B097500BF86DBCFE6EDFD87FFEF46FD
:1009C200071680828486888A8C07088183858789B6
:0B09D2008B8D070F3059231303062202
:080A10007F64AE071FEE70FACF
:010A180022BB
:09098000C4540F90095593F4FDD5
:100989007401A807088002C333D8FC90C000F09016
:0B099900E000EDF0120A107580FF2254
:10092A00E4FD7F8E1209DEE4F51D7416251DF8E636
:10093A00FF740F251DF8E6FD1209DE051DE51DC32E
:0B094A00940740E67D807F8E0209DEEE
:1009A400E4F51D7408251DF8E6FF1208F6740F25FA
:0D09B4001DF8A607051DE51DC3940740E6CC
:0109C1002213
:10088C00E511C4540F90095593F4FDE4FF12098946
:10089C00E511540F90095593F4FD7F0112098990CD
:1008AC000966E493F4FD7F02120989E5107F0312B7
:1008BC000980E510540F90095593F4FD7F0412093B
:1008CC0089900966E493F4FD7F05120989E50F7F91
:1008DC0006120980E50F540F90095593F4FD7F071C
:0A08EC001209897DFF7F07020989C8
:0B0A050012092A1209A412088C80F8C4
:1009F200E4FEC297EF1392A3EFC313FFD2970EBE8A
:020A020008F0FA
:010A040022CF
:1009DE00C29300C29700D293001209F2AF0512091A
:0409EE00F2C293229C
:1008F600E4FDC29300C29700D293001209F2E4FF0E
:10090600C297EDC313FD30A303430580D2970FBFF3
:1009160008EEC29300C29700D29700C2A300D2A3EA
:0309260000AF051A
:0109290022AB
:03000000020800F3
:0C080000787FE4F6D8FD75811D020847E2
:10080C00020A05E493A3F8E493A34003F68001F2F3
:10081C0008DFF48029E493A3F85407240CC8C333ED
:10082C00C4540F4420C8834004F456800146F6DFBC
:10083C00E4800B01020408102040809009C2E47E81
:10084C00019360BCA3FF543F30E509541FFEE493B1
:10085C00A360010ECF54C025E060A840B8E493A378
:10086C00FAE493A3F8E493A3C8C582C8CAC583CAA3
:10087C00F0A3C8C582C8CAC583CADFE9DEE780BE5B
:0109DD000019
:00000001FF
