:1009C8003F065B4F666D7D077F6F777C395E797177
:1009D8000040761E7038375C733E783D6750376E3E
:0B09E800BF86DBCFE6EDFD87FFEF468A
:0B0A6A0002090000020B000001080060
:0C0A5E0090800074FFF090A000E4F022F3
:080A81007F64AE071FEE70FA5E
:010A8900224A
:040A1800E493F4FD72
:100A1C007401A807088002C333D8FC90C000F09082
:0B0A2C00E000EDF0120A8174FFF022E0
:100A3700758916758D3C758BAF758CFF758AFFD2DE
:0A0A4700ABD2A9D28ED28CD2AF221E
:100800009009D7E493F4FDE4FF120A1C7DFF7F01F9
:10081000120A1C7F02120A1CD3E50A940FE5099400
:1008200027401AAE09AF0A7C277D1012097374C8DD
:100830002FF58274093EF5837F03120A18D3E50A67
:1008400094E7E50994034021AE09AF0A7C037DE8F3
:100850001209737C007D0A12097374C82DF5827425
:10086000093CF5837F04120A18D3E50A9463E5096D
:1008700094004025AE09AF0A7C007D641209737CA8
:10088000007D0A12097374C82DF58274093CF58342
:10089000E493F4FD7F05120A1CD3E50A9409E509E7
:1008A00094004025AE09AF0A7C007D0A1209737CD2
:1008B000007D0A12097374C82DF58274093CF58312
:1008C000E493F4FD7F06120A1CAE09AF0A7C007D9A
:1008D0000A12097374C82DF58274093CF583E493F8
:0708E000F4FD7F07020A1C72
:0B0A7600120A5E120A3712080080FB13
:03000B00020A5195
:0D0A5100C0E0050CE50C7002050BD0E03292
:03001B000209F3E4
:1009F300C0E0C0D00508758D3C758BAFE508B41415
:100A03000F750800850B09850C0A750B00750C0022
:050A1300D0D0D0E0325C
:030000000208E70C
:0C08E700787FE4F6D8FD75810C02092E24
:10097300BC000BBE0029EF8DF084FFADF022E4CC68
:10098300F875F008EF2FFFEE33FEEC33FCEE9DEC31
:10099300984005FCEE9DFE0FD5F0E9E4CEFD22ED77
:1009A300F8F5F0EE8420D21CFEADF075F008EF2FC1
:1009B300FFED33FD4007985006D5F0F222C398FDB2
:0509C3000FD5F0EA224F
:1008F300020A76E493A3F8E493A34003F68001F29B
:1009030008DFF48029E493A3F85407240CC8C33305
:10091300C4540F4420C8834004F456800146F6DFD4
:10092300E4800B0102040810204080900A6AE47EF0
:10093300019360BCA3FF543F30E509541FFEE493C9
:10094300A360010ECF54C025E060A840B8E493A390
:10095300FAE493A3F8E493A3C8C582C8CAC583CABB
:10096300F0A3C8C582C8CAC583CADFE9DEE780BE73
:010A75000080
:00000001FF
