:04028900D2A07F057B
:08028D0000AE071FEE70F9221C
:0F027A00D2A1120289C2A17F0512028DC2A02259
:0C029500C2A1120289D2A17F0502028DD5
:10025200C2A0A20092A17F0512028D120289C2A041
:07026200D2A17F0502028D0D
:10026900120289A2A19200C2A07F0512028DA200EA
:010279002262
:02019100AD07B8
:10019300E4FCC2A07F0512028DED30E704D2A180FA
:1001A30002C2A17F0512028DD2A0ED25E0FD7F05DD
:0901B30012028D0CBC08DBC2A095
:0101BC002220
:10023500E4FC120289ED25E0FD30A103430501C26E
:0C024500A07F0512028D0CBC08E8AF057C
:01025100228A
:1001E8003F065B4F666D7D077F6F777C395E79715F
:1001F8000040761E7038375C733E783D6750376E26
:0B020800BF86DBCFE6EDFD87FFEF4671
:0902AC00010800010900010A002B
:0802B6007F367EC7DEFEDFFC8F
:0102BE00221D
:0B02A100EF1FAC0670011E4C70F6222F
:02015E008F0B05
:10016000E4F50C12027A7FA0120191120269AF0B22
:1001700012019112026912027A7FA11201911202F8
:10018000691202358F0CD200120252120295AF0C86
:01019000224C
:100213008F0B8D0C12027A7FA0120191120269AF2B
:100223000B120191120269AF0C12019112026902C1
:02023300029532
:1000FB001202B67F0112015E8F081202B67F021246
:10010B00015E8F091202B67F0312015E8F0A120283
:10011B00B605080509050AE508D3940A4003E4F57A
:10012B0008E509D3940A4003E4F509E50AD3940AD8
:10013B004003E4F50AAD087F011202131202B6ADBB
:10014B00097F021202131202B6AD0A7F03120213C9
:03015B000202B6E7
:0C01BD0075F00A84E5F09001E893F4FD71
:1001C9007401A807088002C333D8FC90C000F090DE
:0F01D900E000EDF07FF47E011202A174FFF0222E
:10008F00E50875F00A849001E893F4FDE4FF12018E
:10009F00C9E5087F011201BD9001F9E493F4FD7FDA
:1000AF00021201C9E50975F00A849001E893F4FD85
:1000BF007F031201C9E5097F041201BD9001F9E424
:1000CF0093F4FD7F051201C9E50A75F00A849001CA
:1000DF00E893F4FD7F061201C9E50A75F00A84E57D
:0C00EF00F09001E893F4FD7F070201C9C6
:0802BF001200FB12008F80FB0E
:03000000020003F8
:0C000300787FE4F6D8FD75812002004AE9
:10000F000202BFE493A3F8E493A34003F68001F246
:10001F0008DFF48029E493A3F85407240CC8C333F2
:10002F00C4540F4420C8834004F456800146F6DFC1
:10003F00E4800B01020408102040809002ACE47EA3
:10004F00019360BCA3FF543F30E509541FFEE493B6
:10005F00A360010ECF54C025E060A840B8E493A37D
:10006F00FAE493A3F8E493A3C8C582C8CAC583CAA8
:10007F00F0A3C8C582C8CAC583CADFE9DEE780BE60
:0102B5000048
:00000001FF
