:100C2B003F065B4F666D7D077F6F777C395E797111
:100C3B000040761E7038375C733E783D6750376ED8
:0B0C4B00BF86DBCFE6EDFD87FFEF4624
:100CD200750C03750DE8E50D150DAE0C7002150CC3
:080CE2004E6005120BCA80EE02
:010CEA0022E7
:100B3200120C567FCC120C7D7F44120C7D120CD20B
:100B4200120C567FCC120C7D7FBE120C7D120CB89B
:100B52008F09120CB88F08120C56750A0085080B03
:100B6200E50BF50AE509F50BE50A54F87059E509B4
:100B7200540FFF7E007C007D0A120ABDAC06AD0751
:100B8200E4120A03E4FBFA7980783D1208F8C00403
:100B9200C005C006C007E50AC4F854F0C868FEE5FF
:100BA2000BC4540F48FF7C007D0A120ABDAC06AD8F
:100BB20007E4120A03D003D002D001D000120807C2
:080BC200120A3C8E0A8F0B227F
:080D1B007FF4AE071FEE70FA31
:010D230022AD
:100C9B0090E00074FFF07401A807088002C333D8FA
:0D0CAB00FC90C000F090E000EDF0020D1B89
:100BCA00AE0AAF0B7C007D64120ACF742B2FF5821C
:100BDA00740C3EF583E493F4FD7F05120C9BAE0A78
:100BEA00AF0B7C007D0A120ACF7C007D0A120ACF65
:100BFA00744B2DF582740C3CF583E493F4FD7F0667
:100C0A00120C9BAE0AAF0B7C007D0A120ACF742B22
:100C1A002DF582740C3CF583E493F4FD7F07020CF6
:010C2A009B2E
:0E0D010090800074FFF0120B32120BCA80F8C3
:040CEB007F057E0003
:100CEF007C007D0A120ABDEF1FAC0670011E4C700E
:020CFF00F622DB
:020C7D00AB07C3
:100C7F00E4FAC294EB139294120CEBD294EBC313DD
:0C0C8F00FB0ABA08ED7F057E00020CEFA6
:100CB800E4FAC294EBC313FBD29430940343038049
:090CC800120CEB0ABA08EBAF03B1
:010CD1002200
:100C5600C200D2947F0C7E00120CEFC2947F507EAD
:100C660000120CEFD2947F0A7E00120CEFA294922F
:060C760000120CEBA200CD
:010C7C002255
:10080000020AA8E86480F8E933E83360110460F074
:10081000ED33EC337009E8FCE9FDEAFEEBFF22045E
:1008200060DED3EB9FEA9EE99DE8C2E78CF0C2F759
:1008300095F0400CE8CCF8E9CDF9EACEFAEBCFFB25
:10084000120A7385D0F05804700320D5B3E8047001
:10085000075002B2D5020AB292D5EC0460F7E4CC9C
:10086000C0E0C398F8603B94186008400DD0E0FBEE
:10087000020A8AE4FBFAC9FC8028E830E406E4C9ED
:10088000FBE4CAFCE830E305E4C9CACBFCE8540742
:100890006010F8C3E913F9EA13FAEB13FBEC13FC4D
:1008A000D8F130F52FC3E49CFCEF9BFFEE9AFEEDF0
:1008B00099FDD0E0FBEF4E4D4C701222DB03020A93
:1008C000AFEC2CFCEF33FFEE33FEED33FDED30E704
:1008D000EB020A8AEF2BFFEE3AFEED39FDD0E0FB8A
:1008E00050130BBB0003020AB2ED13FDEE13FEEF33
:0808F00013FFEC13FC020A8A5D
:1008F800EC4D6011E8497017ED33EC3304600DE4FA
:10090800FCFFFEFD22E933E8330470F8020AA8125E
:100918000A7358046009E4CC24815006285009025F
:100928000AB2284003020AAFC0E0EB4A7044B9801B
:1009380006D0E0FB020A9EEF4E701CBD8008EBFF5C
:10094800EAFEE9FD80EBE98DF0A4FEE5F00209E19D
:10095800E9CDF9EAFEEBFFEF89F0A4FCE5F0CE89DA
:10096800F0A42EFFE435F0CD89F0A42DFEE435F097
:100978008067EF4E7005BD80D780C3EF8BF0A4ACC5
:10098800F0EE8BF0A42CFCE435F0F8EF8AF0A42C00
:10099800E5F038FCE433CB8DF0A42CFCE5F03BF813
:1009A800EE8AF0A42CFCE5F038F8E433CF89F0A403
:1009B8002CFCE5F038CF3400CE89F0A42FFFE5F009
:1009C8003EFEE433C98DF0A42EFEE5F039CD8AF061
:1009D800A42FFFE5F03EFEE43DFD33D0E0FB5007D9
:1009E8000BBB000F020AB2EC2CFCEF33FFEE33FE18
:0609F800ED33FD020A8A46
:1009FE0075F020800E75F010800575F0087D007E74
:100A0E00007F003392D530D503120B24EC33401007
:100A1E00EF33FFEE33FEED33FDEC33FCD5F0ED227C
:0E0A2E00E5F0247EA2D513CC92E7CDCEFF22B8
:100A3C00EDD2E7CD33EC3392D524814006E4FFFEB2
:100A4C00FDFC22FCE4CFCECDCC24E0501174FF8011
:100A5C00EDC3CC13CCCD13CDCE13CECF13CF0470AE
:070A6C00F030D5DE020B247F
:100A7300E9D2E7C933E833F892D5EDD2E7CD33ECC9
:070A830033FC5002B2D52242
:100A8A00EC30E7100FBF000C0EBE00080DBD0004CD
:100A9A000BEB6014A2D5EB13FCED92E7FD2274FF79
:100AAA00FCFDFEFF22E480F8A2D574FF13FC7D80D2
:030ABA00E480EFE6
:03000000020D0FDF
:0C0D0F00787FE4F6D8FD758120020D010C
:100ABD00EF8DF0A4A8F0CF8CF0A428CE8DF0A42E4D
:020ACD00FE2207
:100ACF00BC000BBE0029EF8DF084FFADF022E4CC0B
:100ADF00F875F008EF2FFFEE33FEEC33FCEE9DECD4
:100AEF00984005FCEE9DFE0FD5F0E9E4CEFD22ED1A
:100AFF00F8F5F0EE8420D21CFEADF075F008EF2F64
:100B0F00FFED33FD4007985006D5F0F222C398FD54
:050B1F000FD5F0EA22F1
:0E0B2400C3E49FFFE49EFEE49DFDE49CFC22E2
:00000001FF
