:060983000108000109005B
:0B096F00EF1FAC0670011E4C70F6225A
:08097A007F6C7E91DEFEDFFCC4
:010982002252
:10091D00EF24FB601314601914601F24037023E58A
:10092D00A0541F4480F5A022E5A0541F44A0F5A0BB
:10093D0022E5A0541F44C0F5A022E5A0541F44E0B9
:03094D00F5A022F0
:100950007F0512091DE4F5801F12091D7580FF2215
:1008000020B01DE509701912097A20B01330B0FD2F
:100810000508C280E508D394014005E4F508D280BC
:10082000E508602420B20F12097A20B20920B20430
:10083000C28280F9D28220B30F12097A20B3092034
:10084000B304C28380F9D28320B11DE50870191268
:10085000097A20B11330B1FD0509C281E509D394AD
:10086000014005E4F509D281E509602420B20F12A8
:10087000097A20B20920B204C28480F9D28420B35C
:100880000F12097A20B30920B304C28580F9D285FA
:010890002245
:0F0960001209501208007F0A7E0012096F80F4FE
:0300000002089162
:0C089100787FE4F6D8FD7581090208D8D4
:10089D00020960E493A3F8E493A34003F68001F208
:1008AD0008DFF48029E493A3F85407240CC8C3335C
:1008BD00C4540F4420C8834004F456800146F6DF2B
:1008CD00E4800B0102040810204080900983E47E2F
:1008DD00019360BCA3FF543F30E509541FFEE49320
:1008ED00A360010ECF54C025E060A840B8E493A3E7
:1008FD00FAE493A3F8E493A3C8C582C8CAC583CA12
:10090D00F0A3C8C582C8CAC583CADFE9DEE780BEC9
:01098900006D
:00000001FF
