:040EA000D2A07F0F4E
:090EA4000000AE071FEE70F822F9
:0F0E8300D2A1120EA0C2A17F0F120EA4C2A022F4
:0C0EAD00C2A1120EA0D2A17F0F020EA461
:100E1D00C2A0A20092A17F0F120EA4120EA0C2A01A
:070E2D00D2A17F0F020EA409
:100E6100120EA0A2A19200C2A07F0F120EA4A20096
:010E7100225E
:020D6D00AD07D0
:100D6F00E4FCC2A07F0F120EA4ED30E704D2A180E5
:100D7F0002C2A17F0F120EA4D2A0ED25E0FD7F0FBE
:090D8F00120EA40CBC08DBC2A08A
:010D98002238
:100DE600E4FC120EA0ED25E0FD30A103430501C28F
:0C0DF600A07F0F120EA40CBC08E8AF0593
:010E020022CD
:100D99003F065B4F666D7D077F6F777C395E7971A2
:100DA9000040761E7038375C733E783D6750376E69
:0B0DB900BF86DBCFE6EDFD87FFEF46B5
:100D3C000108000117000118000119000409080836
:100D4C000808041B00000000040F00000000011A3A
:100D5C0000010D00011500011400011300010E002B
:100E4B0090800074FFF090A000E4F090C00074FF5D
:060E5B00F090E000F0221F
:080EB9007F46AE071FEE70FA40
:010EC100220E
:100BDE0074092516F8E675F032A4FFAEF07C007DA0
:100BEE006412099474992FF582740D3EF583E49383
:100BFE00F4FD7F05120C0E900D99E493F4FD7F0623
:100C0E007401A807088002C333D8FC90C000F0908E
:0B0C1E00E000EDF0120EB974FFF022B0
:100B8400120E837F90120D6D120E617F43120D6D54
:100B9400120E61120EAD120E837F91120D6D120EA4
:100BA40061120DE68F18C200120E1D120EADE5186B
:100BB400D3943F500475191922E518D3947F500437
:100BC40075193222E518D394BF500475194B22E5E8
:0A0BD40018C394FF50037519642242
:100DC4008F218D22120E837F90120D6D120E61AF52
:100DD40021120D6D120E61AF22120D6D120E610201
:020DE4000EAD52
:100E0300758911758CFF758A9B758D3C758BAFD277
:0A0E1300A9D28CD2ABD28ED2AF224E
:100C2900E4F51F751601F51FE5156035AF1F740151
:100C3900A807088002C333D8FCF4908000F0E50FC0
:100C4900701CE50DB40112AF1F7401A807088002DA
:100C5900C333D8FCF4908000F012080080E0E4F57A
:0A0C69000F051FE51FC3940840BEED
:010C7300225E
:100C7400E4F51F751602F51FE5156035AF1F748086
:100C8400A807088002C313D8FCF4908000F0E51094
:100C9400701CE50DB40112AF1F7480A80708800210
:100CA400C313D8FCF4908000F012080080E0E4F54F
:0A0CB40010051FE51FC3940840BEA1
:010CBE002213
:100A4900E4F51F751603F51FE5156055AF1F740111
:100A5900A807088002C333D8FCF4FFAE1F7480A82E
:100A690006088002C313D8FCF45F908000F0E511FA
:100A7900702CE50DB40122AF1F7401A8070880028C
:100A8900C333D8FCF4FFAE1F7480A806088002C3E4
:100A990013D8FCF45F908000F012080080D0E4F5D0
:0A0AA90011051FE51FC39404409ED1
:010AB3002220
:100AB400E4F51F751604F51FE5156055AF1F741096
:100AC400A807088002C333D8FCF4FFAE1F7408A83B
:100AD40006088002C313D8FCF45F908000F0E5128E
:100AE400702CE50DB40122AF1F7410A80708800212
:100AF400C333D8FCF4FFAE1F7408A806088002C3F1
:100B040013D8FCF45F908000F012080080D0E4F564
:0A0B140012051FE51FC39404409E64
:010B1E0022B4
:100E7200E515600C120C29120C74120A49120AB4FC
:010E8200224D
:100E3400900DAA120C08E51975F01984900D999378
:070E4400F4FD7F07020C0E14
:100B1F00900DAAE493F4FDE4FF120C0EE516900D70
:100B2F009993F4FD7F01120C0E900DAAE493F4FD3E
:100B3F007F02120C0E74092516F8E675F032A4FF29
:100B4F00AEF0D394E7EE64809483401A7C037DE883
:100B5F0012093F74992FF582740D3EF583E493F4D7
:100B6F00FD7F04120C0E120BDE900D99E493F4FD31
:050B7F007F07020C0ECF
:080EC2007F6C7E91DEFEDFFC77
:010ECA002205
:100D030020B015120EC220B00F30B0FDE5157004EF
:100D13007F0180027F008F1520B11D120EC220B10A
:100D23001730B1FD0514E514B4030DE4F51490C0B8
:090D33000074FFF090E000F022D2
:10080000E51464017045E5177005120B1F80F7E4CD
:10081000F51790C0007407F090E00074FFF0E51742
:100820007026900DAA93F4FDE4FF120C0EE51690CD
:100830000D9993F4FD7F01120C0E900DAAE493F430
:10084000FD7F02120C0E80D6E4F517E514640270E9
:1008500061E5177005120B1F80F7E4F51790C000D3
:1008600074E0F090E00074FFF0E517704274092521
:1008700016F8E675F032A4FFAEF0D394E7EE64808C
:100880009483401A7C037DE812093F74992FF58206
:10089000740D3EF583E493F4FD7F04120C0E120BED
:1008A000DE900D99E493F4FD7F07120C0E80BAE4FC
:0308B000F5172217
:0E0E9200120E4B120E03120E7212080080F8A0
:03000B00020CBF25
:100CBF00C0E0C083C082C0D075D000C006C0077529
:100CCF008CFF758A9B120D03051AE51AB464037520
:100CDF001A00E51AC395195005750D018009750D98
:100CEF000090800074FFF0D007D006D0D0D082D013
:040CFF0083D0E0328C
:03001B000209CA0D
:1009CA00C0E0C0F0C083C082C0D075D000C000C0F3
:1009DA0001C002C003C004C005C006C007758D3C33
:1009EA00758BAF051B051C051D051E0508E51BB506
:1009FA000909751B00750F01120B84E51CB50A065F
:100A0A00751C00751001E51DB50B06751D007511E5
:100A1A0001E51EB50C06751E00751201E508B41035
:100A2A0003751701D007D006D005D004D003D00231
:0F0A3A00D001D000D0D0D082D083D0F0D0E03225
:030000000208B340
:0C08B300787FE4F6D8FD7581220208FA77
:10093F00BC000BBE0029EF8DF084FFADF022E4CC9C
:10094F00F875F008EF2FFFEE33FEEC33FCEE9DEC65
:10095F00984005FCEE9DFE0FD5F0E9E4CEFD22EDAB
:10096F00F8F5F0EE8420D21CFEADF075F008EF2FF5
:10097F00FFED33FD4007985006D5F0F222C398FDE6
:05098F000FD5F0EA2283
:10099400C2D5EC30E709B2D5E4C39DFDE49CFCEE7E
:1009A40030E715B2D5E4C39FFFE49EFE12093FC3AE
:1009B400E49DFDE49CFC800312093F30D507C3E4A9
:0609C4009FFFE49EFE22ED
:1008BF00020E92E493A3F8E493A34003F68001F2AF
:1008CF0008DFF48029E493A3F85407240CC8C3333A
:1008DF00C4540F4420C8834004F456800146F6DF09
:1008EF00E4800B0102040810204080900D3CE47E50
:1008FF00019360BCA3FF543F30E509541FFEE493FE
:10090F00A360010ECF54C025E060A840B8E493A3C4
:10091F00FAE493A3F8E493A3C8C582C8CAC583CAEF
:10092F00F0A3C8C582C8CAC583CADFE9DEE780BEA7
:010D6C000086
:00000001FF
