:100883003F065B4F666D7D077F6F777C395E7971BD
:100893000040761E7038375C733E783D6750376E84
:0B08A300BF86DBCFE6EDFD87FFEF46D0
:10075900072180828486888A8C07428183858789DC
:100769008B8D072E50592318030522033D23595514
:10077900013701013600012D00012C00012900017A
:100789003A00014000013B00012A00012800014113
:0407990000013C001F
:1009A30090800074FFF090A000E4F090C00074FF0A
:0609B300F090E000F022CC
:1009F600758901758C3C758CAFD2A9D28CD2AF2289
:03000B000206C228
:1006C200C0E0C0D0758C3C758CAF053B0528E53B7E
:1006D200B41417E53AB40102053C052AE53CB40618
:1006E20009753C00753A00754000E53BB428067573
:1006F2002A00753B00E528B404020541E528B40848
:0C07020006754100752800D0D0D0E03210
:07000300AE071FEE70FA22A8
:100975008E088F09E5091509AE08700215084E6045
:07098500051208FF80EE22BD
:1007DE00E52E75F0101205D5FF3395E0FE74832FCC
:0D07EE00F58274083EF583E493F4FD7F0668
:1007FB007401A807088002C333D8FC90C000F090A6
:0D080B00E000EDF07FF412000374FFF02216
:10070E001208D87FCC12093D7F4412093D7F0A7E24
:10071E00001209751208D87FCC12093D7FBE12094E
:10072E003D12095B8F3512095B8F2BEFF538E535DE
:10073E00F539E53854F87012E538C4F854F0C86845
:0B074E00F538E539C4540F48F5392296
:10079E00AE38AF397C007D0A12060974832FF582BC
:1007AE0074083EF583E493F4FD7F051207FBAE3823
:1007BE00AF397C007D0A12060974832DF582740808
:1007CE003C1207F390088FE493F4FD7F070207FBBA
:10081800E4FD7F8E1209CFE4F508F509AE097421CD
:100828002EF8E6FF742E2EF8E6FD1209CF0509E52D
:100838000970020508C39407E5086480948040DCC9
:070848007D807F8E0209CFC5
:1008AE00E4F508F50974422509F8E6FF12084F74BD
:1008BE002E2509F8A6070509E50970020508C39457
:0908CE0007E5086480948040DC19
:0108D70022FE
:10098C00EF540FFEBE0A0474062FFFEF540FFEBE89
:07099C000F0474FA2FFF2283
:1003A200E53764027054E52A64017042E53075F065
:1003B200101205D5FF3395E0FE74832FF582740881
:1003C2003EF583E493F4FDE4FF1207FBE53075F09C
:1003D200101205D5AFF0EF3395E0FE74832FF5824E
:1003E20074083EF583E493F4FD7F011207FBE52ACE
:1003F200704A7DFFFF1207FB803DE53075F0101259
:1004020005D5FF3395E0FE74832FF58274083EF51F
:1004120083E493F4FDE4FF1207FBE53075F010125C
:1004220005D5AFF0EF3395E0FE74832FF5827408A3
:100432003EF583E493F4FD7F011207FB900894E4F8
:1004420093F4FD7F021207FBE5376403704EE52A41
:100452006401703FE52F75F0101205D5FF3395E06A
:10046200FE74832FF58274083EF583E493F4FD7FD6
:10047200031207FBE52F75F0101205D5AFF0EF332D
:1004820095E0FE74832FF58274083EF583E493F4BD
:10049200FD80467DFF7F031207FB803DE52F75F04F
:1004A200101205D5FF3395E0FE74832FF582740890
:1004B2003EF583E493F4FD7F031207FBE52F75F00D
:1004C200101205D5AFF0EF3395E0FE74832FF5825D
:1004D20074083EF583E493F4FD7F041207FB900851
:1004E20094E493F4FD7F051207FBE5376404703151
:1004F200E52A640170221207DEE52E75F01012055E
:10050200D5AFF0EF3395E0FE74832FF58274083E89
:10051200F583E493F4FD80297DFF7F061207FB80BB
:10052200201207DEE52E75F0101205D5AFF0EF337D
:1005320095E0FE74832FF58274083EF583E493F40C
:07054200FD7F071207FB22F9
:1001E900E53664027054E52A64017042E53D75F014
:1001F900101205D5FF3395E0FE74832FF58274083C
:100209003EF583E493F4FDE4FF1207FBE53D75F049
:10021900101205D5AFF0EF3395E0FE74832FF58208
:1002290074083EF583E493F4FD7F011207FBE52A88
:10023900704A7DFFFF1207FB803DE53D75F0101206
:1002490005D5FF3395E0FE74832FF58274083EF5DA
:1002590083E493F4FDE4FF1207FBE53D75F010120A
:1002690005D5AFF0EF3395E0FE74832FF58274085E
:100279003EF583E493F4FD7F011207FB900894E4B3
:1002890093F4FD7F021207FBE53664037055E52AF6
:1002990064017042E53E75F0101205D5FF3395E013
:1002A900FE74832FF58274083EF583E493F4FD7F91
:1002B900031207FBE53E75F0101205D5AFF0EF33D9
:1002C90095E0FE74832FF58274083EF583E493F478
:1002D900FD7F041207FBE52A704B7DFF7F031207A0
:1002E900FB803DE53E75F0101205D5FF3395E0FE24
:1002F90074832FF58274083EF583E493F4FD7F033C
:100309001207FBE53E75F0101205D5AFF0EF3395F6
:10031900E0FE74832FF58274083EF583E493F4FDBF
:100329007F041207FB900894E493F4FD7F051207FC
:10033900FBE5366404703AE52A64017027E53F124B
:1003490007E0E53F75F0101205D5AFF0EF3395E002
:10035900FE74832FF58274083EF583E493F4FD7FE0
:10036900071207FBE52A70307DFF7F061207FB8025
:1003790022E53F1207E0E53F75F0101205D5AFF011
:10038900EF3395E0FE74832FF58274083EF583E41C
:0903990093F4FD7F071207FB221B
:1008FF00E537B4010820B30512079E80F8E537608D
:10090F0007E53670031203A2E53660031201E922F0
:080A06007F6C7E91DEFEDFFC37
:010A0E0022C5
:10000E0020B02F120A0620B02920B0051208FF805A
:10001E00F8E5377002F529E4F5360537E537B40211
:10002E0003752901E537B40509E4F5297537011281
:10003E00081820B11B120A0620B11520B1051208AE
:10004E00FF80F8E4F5370536E536B405037536015D
:10005E0030B203020124120A0630B203020124E573
:10006E00377007E536700302012420B2051208FF2F
:10007E0080F8E537B402170530AF3012098C8F3097
:10008E00D3E530648094A3403BE4F5308036E53709
:10009E00B40317052FAF2F12098C8F2FD3E52F64C2
:1000AE008094D9401FE4F52F801AE537B404150566
:1000BE002EAF2E12098C8F2ED3E52E648094D9404C
:1000CE0003E4F52EE536B40217053DAF3D12098C5B
:1000DE008F3DD3E53D648094A3403BE4F53D8036EF
:1000EE00E536B40317053EAF3E12098C8F3ED3E5BD
:1000FE003E648094D9401FE4F53E801AE536B40480
:10010E0015053FAF3F12098C8F3FD3E53F648094B6
:10011E00D94003E4F53F30B3030201E8120A06307A
:10012E00B3030201E8E5377007E53670030201E814
:10013E0020B3051208FF80F8E537B402171530AF6B
:10014E003012098C8F30C3E53064809480503B753B
:10015E0030238036E537B40317152FAF2F12098CD5
:10016E008F2FC3E52F64809480501F752F59801AEE
:10017E00E537B40415152EAF2E12098C8F2EC3E55C
:10018E002E648094805003752E59E536B4021615F0
:10019E003DAF3D12098C8F3DC3E53D648094805088
:1001AE0039753D2322E536B40316153EAF3E1209CE
:1001BE008C8F3EC3E53E64809480501E753E59225E
:1001CE00E536B40415153FAF3F12098C8F3FC3E5DA
:0B01DE003F648094805003753F59225D
:10065E00E53FB52E0DE53EB52F08E53DB5300375EA
:10066E003A01E53A6401704BE5407047E5419080F0
:10067E0000B4010574FFF0800374FEF020B1047F16
:10068E000180027F0020B0047E0180027E00EE4FCA
:10069E00FF20B2047E0180027E00EE4FFF20B304E5
:1006AE007E0180027E00EE4F600975400190800051
:0406BE0074FFF022B3
:10091F001209A31208181209F612000E12070EE59B
:0E092F002970031208AE1208FF12065E80EB5C
:0409B9007F057E0038
:1009BD007C007D0A1205F7EF1FAC0670011E4C700E
:0209CD00F62210
:02093D00AB0706
:10093F00E4FAC294EB1392941209B9D294EBC31355
:0C094F00FB0ABA08ED7F057E000209BD1E
:10095B00E4FAC294EBC313FBD294309403430380A9
:09096B001209B90ABA08EBAF0346
:010974002260
:1008D800C200D2947F0C7E001209BDC2947F507E64
:1008E800001209BDD2947F0A7E001209BDA294921B
:0608F800001209B9A20084
:0108FE0022D7
:1009E300E4FEC297EF1392A3EFC313FFD2970EBE99
:0209F30008F00A
:0109F50022DF
:1009CF00C29300C29700D293001209E3AF05120938
:0409DF00E3C29322BA
:10084F00E4FDC29300C29700D293001209E3E4FFC4
:10085F00C297EDC313FD30A303430580D2970FBF9B
:10086F0008EEC29300C29700D29700C2A300D2A392
:03087F0000AF05C2
:010882002253
:03000000020549AD
:0C054900787FE4F6D8FD7581480205902B
:1005D500C2D530F707B2D563F0FF05F030E70CB2AE
:1005E500D5F4048463F0FF05F080018430D502F46E
:0205F5000422DE
:1005F700EF8DF0A4A8F0CF8CF0A428CE8DF0A42E18
:02060700FE22D1
:10060900BC000BBE0029EF8DF084FFADF022E4CCD5
:10061900F875F008EF2FFFEE33FEEC33FCEE9DEC9E
:10062900984005FCEE9DFE0FD5F0E9E4CEFD22EDE4
:10063900F8F5F0EE8420D21CFEADF075F008EF2F2E
:10064900FFED33FD4007985006D5F0F222C398FD1F
:050659000FD5F0EA22BC
:1005550002091FE493A3F8E493A34003F68001F294
:1005650008DFF48029E493A3F85407240CC8C333A7
:10057500C4540F4420C8834004F456800146F6DF76
:10058500E4800B0102040810204080900759E47EA6
:10059500019360BCA3FF543F30E509541FFEE4936B
:1005A500A360010ECF54C025E060A840B8E493A332
:1005B500FAE493A3F8E493A3C8C582C8CAC583CA5D
:1005C500F0A3C8C582C8CAC583CADFE9DEE780BE15
:01079D00005B
:00000001FF
