:1005A100E4FEC297EF1392A3EFC313FFD2970EBEDF
:0205B10008F050
:0105B3002225
:10058D00C29300C29700D293001205A1AF051205C8
:04059D00A1C2932242
:10038B00E4FDC29300C29700D293001205A1E4FFD3
:10039B00C297EDC313FD30A303430580D2970FBF64
:1003AB0008EEC29300C29700D29700C2A300D2A35B
:0303BB0000AF058B
:0103BE00221C
:100421003F065B4F666D7D077F6F777C395E797123
:100431000040761E7038375C733E783D6750376EEA
:0B044100BF86DBCFE6EDFD87FFEF4636
:1002C800013A00012B000139000136010129000122
:1002D8002D000131000133000134000135000A3CD2
:1002E80000000000000000000000012100012A00B9
:1002F800013B00072280828486888A8C0746818396
:0A0308008587898B8D032E50592341
:1003BF00EF24FB601314601914601F24037023E5EE
:1003CF00A0541F4480F5A022E5A0541F44A0F5A01F
:1003DF0022E5A0541F44C0F5A022E5A0541F44E01D
:0303EF00F5A02254
:1005C6007F041203BF7580FF0F1203BFE4F580227C
:100560008E088F09E5091509AE08700215084E605E
:070570000512047680EE2263
:0B05E600EF1FAC0670011E4C70F622E7
:0703F200900421E493F4FDE7
:1003F900AE077F061203BFAF067401A80708800283
:10040900C333D8FCF5807F071203BF8D807FF47E4C
:08041900011205E67580FF22C7
:100133007DFFE4FF1203F97F011203F97F0212032B
:10014300F97F031203F97F041203F9900432E49355
:10015300F4FD7F051203F9E52D700E90042193F44D
:10016300FD7F061203F9A38039E52DB4010A7F064A
:100173001203F2900426802AE52DB4021190042480
:10018300E493F4FD7F061203F99004218014E52D16
:10019300B40318900427E493F4FD7F061203F99047
:0C01A3000421E493F4FD7F071203F9220D
:1001AF00E530C4540F90042193F4FDE4FF1203F9DA
:1001BF00E530540F93F4FD7F011203F9E52B70091D
:1001CF007DFF7F021203F98015E52BB40115900412
:1001DF0032E493F4FD7F021203F9E493F4FD7F05FB
:1001EF001203F9E52FC4540F90042193F4FD7F03FC
:1001FF001203F9E52F540F93F4FD7F041203F9E571
:10020F002EC4540F93F4FD7F061203F9E52E540FFD
:08021F0093F4FD7F070203F9CF
:10027800900432E493F4FDE4FF1203F97F011203C2
:10028800F2E53393F4FD7F021203F9900432E4930C
:10029800F4FD7F051203F9743C2533F8E675F00A7E
:1002A8008490042193F4FD7F061203F9743C2533EE
:1002B800F8E675F00A84E5F093F4FD7F070203F988
:10047600E5317004E5356004E5346003120133E5C7
:10048600316007E52A70031201AFE52AB40107E5DA
:07049600347003120278220A
:1005D600758901758C3C758AAFD2A9D28CD2AF22AF
:03000B00020313DA
:10031300C0E0C0D075D000C007758C3C758AAF05AE
:100323003AE53A64147023F53AE52B70047F0180B3
:10033300027F008F2BE52A7011E531600D0539E549
:1003430039B53606753900752901D007D0D0D0E00C
:010353003277
:1002270012049D7FCC12050B7F4412050B7F647E61
:100237000012056012049D7FCC12050B7FBE1205CC
:100247000B1205468F321205468F2C7537008F38F3
:10025700E538F537E532F538E53754F87012E53704
:10026700C4F854F0C868F537E538C4540F48F53872
:010277002264
:1004E800E531601EE529601AE4F529120227743CFB
:1004F8002521F8A6380521E521B40A06E4F5217579
:030508002A0122A3
:1004C400E52A6013E53B700FE52B7F047002800D75
:1004D4001203BF7580FE22E53B60087F041203BF50
:0404E4007580FF22FE
:10035400E4FD7F8E12058DE4F508F509AE097422DB
:100364002EF8E6FF742E2EF8E6FD12058D0509E53C
:100374000970020508C39403E5086480948040DC96
:070384007D807F8E02058DD4
:10044C00E4F508F50974462509F8E6FF12038B74E8
:10045C002E2509F8A6070509E50970020508C394BD
:09046C0003E5086480948040DC83
:010475002264
:0805F1007F6C7E91DEFEDFFC51
:0105F90022DF
:10000E0020B3371205F120B33120B30512047680E8
:10001E00F8052DE52DB401057536058012E52DB4D4
:10002E00020575361E8008E52DB4030375363CE5D2
:10003E002DB40406753601E4F52D20B2191205F122
:10004E0020B21320B20512047680F80531E4F52DA6
:10005E00F52AF53BF53420B127E52A64017021120B
:10006E0005F120B11B20B10512047680F87535011B
:10007E000533E4F531753B01E533B40A03E4F5339A
:10008E0020B0151205F120B00F20B00512047680B5
:09009E00F80534E4F533F53522D0
:100529001205D61205C612022712035412044C12E0
:0D053900000E1204E81204C412047680EFD4
:040577007F057E007E
:10057B007C007D0A1205B4EF1FAC0670011E4C7097
:02058B00F62256
:02050B00AB073C
:10050D00E4FAC294EB139294120577D294EBC313D1
:0C051D00FB0ABA08ED7F057E0002057B9A
:10054600E4FAC294EBC313FBD294309403430380C2
:090556001205770ABA08EBAF03A5
:01055F002279
:10049D00C200D2947F0C7E0012057BC2947F507EE9
:1004AD000012057BD2947F0A7E0012057BA29492E6
:0604BD0000120577A20009
:0104C3002216
:030000000200A754
:0C00A700787FE4F6D8FD75814C0200EE75
:1005B400EF8DF0A4A8F0CF8CF0A428CE8DF0A42E5B
:0205C400FE2215
:1000B300020529E493A3F8E493A34003F68001F235
:1000C30008DFF48029E493A3F85407240CC8C3334E
:1000D300C4540F4420C8834004F456800146F6DF1D
:1000E300E4800B01020408102040809002C8E47EE3
:1000F300019360BCA3FF543F30E509541FFEE49312
:10010300A360010ECF54C025E060A840B8E493A3D8
:10011300FAE493A3F8E493A3C8C582C8CAC583CA03
:10012300F0A3C8C582C8CAC583CADFE9DEE780BEBB
:0103120000EA
:00000001FF
