:04050E00D2A07F05F3
:0805120000AE071FEE70F92294
:0F04FF00D2A112050EC2A17F05120512C2A022C2
:0C051A00C2A112050ED2A17F050205123D
:10049B00C2A0A20092A17F0512051212050EC2A0E6
:0704AB00D2A17F050205123A
:1004DE0012050EA2A19201C2A07F05120512A20161
:0104EE0022EB
:02036A00AD07DD
:10036C00E4FCC2A07F05120512ED30E704D2A18097
:10037C0002C2A17F05120512D2A0ED25E0FD7F057A
:09038C001205120CBC08DBC2A032
:010395002245
:10044900E4FC12050EED25E0FD30A103430501C2D0
:0C045900A07F051205120CBC08E8AF05DE
:010465002274
:100396003F065B4F666D7D077F6F777C395E7971AF
:1003A6000040761E7038375C733E783D6750376E76
:0B03B600BF86DBCFE6EDFD87FFEF46C2
:1004B20001100001081401091E010B00010C0001CA
:0504C2000E00010F0017
:10030A00EF24FB601314601914601F24037023E5A3
:10031A00A0541F4480F5A022E5A0541F44A0F5A0D4
:10032A0022E5A0541F44C0F5A022E5A0541F44E0D2
:03033A00F5A02209
:0B052600EF1FAC0670011E4C70F622A7
:05033D0093F4FD7F06B2
:10034200AE077F0612030AAF067401A807088002EF
:10035200C333D8FCF5807F0712030A8D807F647E49
:08036200001205267580FF2240
:100466008E168F17E5171517AE16700215164E6005
:0B04760009E51060EF12053180EA225A
:100230001203C17FCC12042B7F4412042B7F0A7E51
:10024000001204661203C17FCC12042B7FBE12047D
:100250002B1204818F0D1204818F0A7511008F12E9
:10026000E512F511E50DF512E51154F87012E511DE
:10027000C4F854F0C868F511E512C4540F48F512DB
:01028000225B
:1002C7009003A2E493F4FDE4FF120342AE11AF12D0
:1002D7007C007D0A1201DB74962FF58274033EF5CC
:1002E70083E412033DAE11AF127C007D0A1201DBDD
:1002F70074962DF58274033CF583E493F4FD7F0730
:03030700020342AC
:100281009003AEE493F4FDE4FF120342E50975F037
:100291000A8490039693F4FD7F03120342E50975E6
:1002A100F00A84E5F093F4FD7F04120342E508753A
:1002B100F00A8412033DE50875F00A84E5F093F431
:0602C100FD7F070203426D
:1004EF007F0412030A7580FF0F12030AE4F58022BE
:10040B008F161204FF7F9012036A1204DE7F4012D4
:10041B00036A1204DEAF1612036A1204DE02051A17
:08053C007F6C7E91DEFEDFFC06
:010544002294
:1000030020B33612053C20B33020B30512053180EE
:10001300F8E50B70047F0180027F008F0BE50B6016
:100023000BE4F50C850813850914800DE508D395B9
:1000330009400685130885140920B21FE50BB40196
:100043001A12053C20B21420B20512053180F8E5DE
:100053000C70047F0180027F008F0C20B131E50B0F
:100063006401702B12053C20B12520B10512053126
:1000730080F8E50C700BE508C39463500405088011
:100083000EE50CB40109E509C39463500205092088
:10009300B030E50B6401702A12053C20B02420B077
:1000A3000512053180F8E50C700AE508D394004089
:1000B30003150822E50CB40109E509D394004002B5
:0300C300150922FA
:0B053100E50B70030202C712028122DA
:10015200E509C39508500E7F0412030AD280D281AA
:10016200D282C28322D3E5129509E5119400401090
:100172007FCC12040B7F0412030AC280D281802436
:10018200D3E5129509E5119400501EC3E5129508B6
:10019200E511940040137F9912040B7F0412030AA5
:1001A200D280C281D282D28322C3E5129508E511A0
:1001B200940050127F6612040B7F0412030AD2804D
:0701C200D281C282D2832228
:1003E8001204EFE4F5151202300515E515C39464FF
:1003F80040F4751001120003120230120531120187
:030408005280F22D
:0404C8007F057E002E
:1004CC007C007D0A1201C9EF1FAC0670011E4C7036
:0204DC00F62206
:02042B00AB071D
:10042D00E4FAC294EB1392941204C8D294EBC31362
:0C043D00FB0ABA08ED7F057E000204CC2B
:10048100E4FAC294EBC313FBD29430940343038088
:090491001204C80ABA08EBAF031B
:01049A00223F
:1003C100C201D2947F0C7E001204CCC2947F507E75
:1003D100001204CCD2947F0A7E001204CCA2949223
:0603E100011204C8A20194
:0103E70022F3
:030000000200C635
:0C00C600787FE4F6D8FD75812002010D62
:1001C900EF8DF0A4A8F0CF8CF0A428CE8DF0A42E4A
:0201D900FE2204
:1001DB00BC000BBE0029EF8DF084FFADF022E4CC08
:1001EB00F875F008EF2FFFEE33FEEC33FCEE9DECD1
:1001FB00984005FCEE9DFE0FD5F0E9E4CEFD22ED17
:10020B00F8F5F0EE8420D21CFEADF075F008EF2F60
:10021B00FFED33FD4007985006D5F0F222C398FD51
:05022B000FD5F0EA22EE
:1000D2000203E8E493A3F8E493A34003F68001F259
:1000E20008DFF48029E493A3F85407240CC8C3332F
:1000F200C4540F4420C8834004F456800146F6DFFE
:10010200E4800B01020408102040809004B2E47ED7
:10011200019360BCA3FF543F30E509541FFEE493F2
:10012200A360010ECF54C025E060A840B8E493A3B9
:10013200FAE493A3F8E493A3C8C582C8CAC583CAE4
:10014200F0A3C8C582C8CAC583CADFE9DEE780BE9C
:0104C7000034
:00000001FF
