:040C1B00D2A07F05DF
:080C1F0000AE071FEE70F92280
:0F0BFD00D2A1120C1BC2A17F05120C1FC2A02295
:0C0C2700C2A1120C1BD2A17F05020C1F01
:100BAF00C2A0A20492A17F05120C1F120C1BC2A09F
:070BBF00D2A17F05020C1F0B
:100BDC00120C1BA2A19204C2A07F05120C1FA2042E
:010BEC0022E6
:020A1100AD072F
:100A1300E4FCC2A07F05120C1FED30E704D2A180D5
:100A230002C2A17F05120C1FD2A0ED25E0FD7F05B8
:090A3300120C1F0CBC08DBC2A070
:010A3C002297
:100B4500E4FC120C1BED25E0FD30A103430501C2B9
:0C0B5500A07F05120C1F0CBC08E8AF05C7
:010B61002271
:100A93003F065B4F666D7D077F6F777C395E7971AB
:100AA3000040761E7038375C733E783D6750376E72
:0B0AB300BF86DBCFE6EDFD87FFEF46BE
:100B0700021400000216000001080A010B00010D83
:0F0B170000C183C101010E00C100010900C1022C
:1009AE00EF24FB601314601914601F24037023E5F9
:1009BE00A0541F4480F5A022E5A0541F44A0F5A02A
:1009CE0022E5A0541F44C0F5A022E5A0541F44E028
:0309DE00F5A0225F
:080C33007F64AE071FEE70FAAA
:010C3B002296
:1008BF007C007D0A1202ED7C007D0A1202ED74931A
:0E08CF002DF582740A3CF583E493F4FD7F0658
:1008DD00AE077F061209AEAF067401A807088002A5
:1008ED00C333D8FCF5807F071209AE8D80120C330F
:0408FD007580FF22E1
:0F0C0C008F21AF211521EF600512080280F4221D
:10068400120ABE7FCC120B277F44120B277F141251
:100694000C0C120ABE7FCC120B277FBE120B271242
:1006A4000B7C8F0C120B7C8F0A7511008F12E512D4
:1006B400F511E50CF512E51154F8704DFCE51254F2
:1006C4000FFDE4120221E4FBFA79C8784012011606
:1006D400C004C005C006C007E511C4F854F0C868DA
:1006E400FEE512C4540F48FF7C007D641202DBACAB
:1006F40006AD07E4120221D003D002D001D00012CB
:0A070400002512025A8E118F1222F6
:10078E00900A9FE493F4FDE4FF1208DDAE11AF1260
:10079E007C037DE81202ED74932FF582740A3EF508
:1007AE0083E493F4FD7F041208DDAE11AF127C00DA
:1007BE007D641202ED7C007D0A1202ED74B32DF5FC
:1007CE0082740A3CF583E493F4FD7F051208DDAED6
:1007DE0011AF121208BFAE11AF127C007D0A1202C9
:1007EE00ED74932DF582740A3CF583E493F4FD7F4A
:0407FE00070208DD09
:10070E00900AA5E493F4FDE4FF1208DD900A9FE43D
:10071E0093F4FD7F011208DDAE1AAF1B7C037DE85A
:10072E001202ED74932FF582740A3EF583E493F46E
:10073E00FD7F041208DDAE1AAF1B7C007D64120231
:10074E00ED7C007D0A1202ED74B32DF582740A3C25
:10075E00F583E493F4FD7F051208DDAE1AAF1B128C
:10076E0008BFAE1AAF1B7C007D0A1202ED74932DEA
:10077E00F582740A3CF583E493F4FD7F070208DDED
:100B6200758916758D3C758BAF758CFF758AFFD2B2
:0A0B7200ABD2A9D28CD28ED2AF22F2
:03000B0002000EE2
:0D000E00C0E00515E51570020514D0E032C4
:03001B00020901D6
:10090100C0E0C0D0758D3C758BAF0517E51770023F
:1009110005160509E509B40405750900B202E517D4
:10092100641445167010D200F516F51785140F855D
:0B0931001510F514F515D0D0D0E03201
:10053300900AA2E493F4FDE4FF1208DDD3E51094DE
:100543000FE50F9427401EAE0FAF107C277D1012CE
:1005530002ED74932FF582740A3EF583E493F4FD60
:100563007F031208DDD3E51094E7E50F94034025DC
:10057300AE0FAF107C037DE81202ED7C007D0A1202
:1005830002ED74932DF582740A3CF583E493F4FD34
:100593007F041208DDD3E5109463E50F9400402532
:1005A300AE0FAF107C007D641202ED7C007D0A1259
:1005B30002ED74932DF582740A3CF583E493F4FD04
:1005C3007F051208DDD3E5109409E50F9400400779
:1005D300AE0FAF101208BFAE0FAF107C007D0A1232
:1005E30002ED74932DF582740A3CF583E493F4FDD4
:0505F3007F070208DD96
:10046200900AA5E493F4FDE4FF1208DD900AA2E4E9
:1004720093F4FD7F011208DDD3E519940FE518947A
:1004820027401EAE18AF197C277D101202ED74931F
:100492002FF582740A3EF583E493F4FD7F0312087C
:1004A200DDD3E51994E7E51894034025AE18AF199A
:1004B2007C037DE81202ED7C007D0A1202ED74934A
:1004C2002DF582740A3CF583E493F4FD7F0412084F
:1004D200DDD3E5199463E51894004025AE18AF19F1
:1004E2007C007D641202ED7C007D0A1202ED7493A1
:1004F2002DF582740A3CF583E493F4FD7F0512081E
:10050200DDD3E5199409E51894004007AE18AF1938
:100512001208BFAE18AF197C007D0A1202ED749367
:100522002DF582740A3CF583E493F4FD7F070208FB
:01053200DDEB
:020867008F23DD
:10086900120BFD7F90120A11120BDCAF23120A1131
:10087900120BDC120BFD7F91120A11120BDC120B09
:10088900458F24D204120BAF120C27AC24E41202B8
:10089900267B707ACE7948783E12011612025A8F59
:1008A90013E513D39508400D7F041209AE300203F6
:0508B900C28722D28776
:0108BE002217
:100A3D00900AACE493F4FDE4FF1208DDE51375F0C4
:100A4D000A84900AB31208D8E51375F00A84E5F00C
:0B0A5D00900A9393F4FD7F070208DD70
:100A6800900AABE493F4FDE4FF1208DDE50875F0A5
:100A78000A84900AB31208D8E50875F00A84E5F0EC
:0B0A8800900A9393F4FD7F070208DD45
:10097700900AA5E493F4FDE4FF1208DD900AACE4C5
:1009870093F4FD7F011208DDE51C75F00A84900AD7
:10099700B31208D8E51C75F00A84E5F0900A939322
:0709A700F4FD7F070208DDEB
:080C3C007F367EC7DEFEDFFCFF
:010C4400228D
:0209E1008F2560
:1009E300120BFD7FA0120A11120BDCAF25120A11A4
:1009F300120BDC120BFD7FA1120A11120BDC120B7E
:0D0A0300458F26D204120BAF120C27AF2630
:010A100022C3
:100AE5008F238D24120BFD7FA0120A11120BDCAF90
:100AF50023120A11120BDCAF24120A11120BDC02AD
:020B05000C27BB
:10093C007F011209E17521008F227F021209E1ADBE
:10094C0007E522F51AEDF51B120C3C7F031209E1A9
:10095C008F1C7F041209E17523008F247F05120977
:0A096C00E1AD07E524F518EDF519DB
:01097600225E
:080C45007F6C7E91DEFEDFFCF6
:010C4D002284
:10035000E4F521F522E50E707720B31E120C45203E
:10036000B31820B30512080280F8D203C201050BAE
:10037000E50BD394024003E4F50B20B253120C4575
:1003800020B24D20B20512080280F8E511FD7F0170
:10039000120AE5120C3CE512FD7F02120AE5120C6E
:1003A0003CAD137F03120AE5120C3CE50FFD7F0400
:1003B000120AE5120C3CE510FD7F05120AE5120C4D
:1003C0003C850F1885101985111A85121B85131C81
:1003D00020B167120C4520B161E50E701A20B105FD
:1003E00012080280F8C203D201050DE50DD3940274
:1003F0004048E4F50D804320B137E4F516F51720A9
:10040000B12B30001E0522E52270020521D394E8AD
:10041000E5219403400DE4F521F522E508943250DE
:100420000205081208027F0312086780D2C200800A
:10043000C6E508C394325002050820B024120C45CA
:1004400020B01E20B00512080280F8C203C201E5E8
:100450000E70047F0180027F008F0EE50E7002D2C5
:010460000398
:010461002278
:1008020030033CE50B701012078E7F041209AEC252
:1008120080D281D2828028E50BB40110120A3D7F7A
:10082200041209AED280D281C2828013E50BB402D7
:100832000E1205337F041209AED280C281D28230F9
:10084200011BE50DB4010512070E8011E50DB4027E
:10085200051209778007E50D7003120462E50E6048
:0508620003120A6822E8
:100BED007F041209AE7580FF0F1209AEE4F5802265
:100B9600120BED120B6212093C1206847F03120837
:090BA6006712035012080280F0EE
:040BC6007F057E0029
:100BCA007C007D0A1202DBEF1FAC0670011E4C701E
:020BDA00F62201
:020B2700AB071A
:100B2900E4FAC294EB139294120BC6D294EBC3135A
:0C0B3900FB0ABA08ED7F057E00020BCA23
:100B7C00E4FAC294EBC313FBD29430940343038086
:090B8C00120BC60ABA08EBAF0314
:010B9500223D
:100ABE00C204D2947F0C7E00120BCAC2947F507E69
:100ACE0000120BCAD2947F0A7E00120BCAA2949215
:060ADE0004120BC6A20485
:010AE40022EF
:10001E000202C6E86480F8E933E83360110460F048
:10002E00ED33EC337009E8FCE9FDEAFEEBFF220448
:10003E0060DED3EB9FEA9EE99DE8C2E78CF0C2F743
:10004E0095F0400CE8CCF8E9CDF9EACEFAEBCFFB0F
:10005E0012029185D0F05804700320D5B3E80470D5
:10006E00075002B2D50202D092D5EC0460F7E4CC70
:10007E00C0E0C398F8603B94186008400DD0E0FBD8
:10008E000202A8E4FBFAC9FC8028E830E406E4C9C1
:10009E00FBE4CAFCE830E305E4C9CACBFCE854072C
:1000AE006010F8C3E913F9EA13FAEB13FBEC13FC37
:1000BE00D8F130F52FC3E49CFCEF9BFFEE9AFEEDDA
:1000CE0099FDD0E0FBEF4E4D4C701222DB03020285
:1000DE00CDEC2CFCEF33FFEE33FEED33FDED30E7D0
:1000EE00EB0202A8EF2BFFEE3AFEED39FDD0E0FB5E
:1000FE0050130BBB00030202D0ED13FDEE13FEEF07
:08010E0013FFEC13FC0202A830
:10011600EC4D6011E8497017ED33EC3304600DE4E3
:10012600FCFFFEFD22E933E8330470F80202C61232
:10013600029158046009E4CC248150062850090233
:1001460002D02840030202CDC0E0EB4A7044B980D9
:1001560006D0E0FB0202BCEF4E701CBD8008EBFF30
:10016600EAFEE9FD80EBE98DF0A4FEE5F00201FF71
:10017600E9CDF9EAFEEBFFEF89F0A4FCE5F0CE89C4
:10018600F0A42EFFE435F0CD89F0A42DFEE435F081
:100196008067EF4E7005BD80D780C3EF8BF0A4ACAF
:1001A600F0EE8BF0A42CFCE435F0F8EF8AF0A42CEA
:1001B600E5F038FCE433CB8DF0A42CFCE5F03BF8FD
:1001C600EE8AF0A42CFCE5F038F8E433CF89F0A4ED
:1001D6002CFCE5F038CF3400CE89F0A42FFFE5F0F3
:1001E6003EFEE433C98DF0A42EFEE5F039CD8AF04B
:1001F600A42FFFE5F03EFEE43DFD33D0E0FB5007C3
:100206000BBB000F0202D0EC2CFCEF33FFEE33FEEB
:06021600ED33FD0202A819
:10021C0075F020800E75F010800575F0087D007E5D
:10022C00007F003392D530D503120342EC334010DB
:10023C00EF33FFEE33FEED33FDEC33FCD5F0ED2266
:0E024C00E5F0247EA2D513CC92E7CDCEFF22A2
:10025A00EDD2E7CD33EC3392D524814006E4FFFE9C
:10026A00FDFC22FCE4CFCECDCC24E0501174FF80FB
:10027A00EDC3CC13CCCD13CDCE13CECF13CF047098
:07028A00F030D5DE02034253
:10029100E9D2E7C933E833F892D5EDD2E7CD33ECB3
:0702A10033FC5002B2D5222C
:1002A800EC30E7100FBF000C0EBE00080DBD0004B7
:1002B8000BEB6014A2D5EB13FCED92E7FD2274FF63
:1002C800FCFDFEFF22E480F8A2D574FF13FC7D80BC
:0302D800E480EFD0
:030000000205F8FE
:0C05F800787FE4F6D8FD75812602063FEE
:1002DB00EF8DF0A4A8F0CF8CF0A428CE8DF0A42E37
:0202EB00FE22F1
:1002ED00BC000BBE0029EF8DF084FFADF022E4CCF5
:1002FD00F875F008EF2FFFEE33FEEC33FCEE9DECBE
:10030D00984005FCEE9DFE0FD5F0E9E4CEFD22ED03
:10031D00F8F5F0EE8420D21CFEADF075F008EF2F4D
:10032D00FFED33FD4007985006D5F0F222C398FD3E
:05033D000FD5F0EA22DB
:0E034200C3E49FFFE49EFEE49DFDE49CFC22CC
:10060400020B96E493A3F8E493A34003F68001F26B
:1006140008DFF48029E493A3F85407240CC8C333F7
:10062400C4540F4420C8834004F456800146F6DFC6
:10063400E4800B0102040810204080900B07E47E44
:10064400019360BCA3FF543F30E509541FFEE493BB
:10065400A360010ECF54C025E060A840B8E493A382
:10066400FAE493A3F8E493A3C8C582C8CAC583CAAD
:10067400F0A3C8C582C8CAC583CADFE9DEE780BE65
:010B260000CE
:00000001FF
