:1005AC003F065B4F666D7D077F6F777C395E797197
:1005BC000040761E7038375C733E783D6750376E5E
:0B05CC00BF86DBCFE6EDFD87FFEF46AA
:10061C0001180002100000010F0206120032003215
:0B062C000032010900010A00010C006F
:1006830090800074FFF090A000E4F090C00074FF2D
:06069300F090E000F022EF
:10066C008E198F1AE51A151AAE19700215194E60EB
:07067C00051206BF80EE220B
:0B06CF00EF1FAC0670011E4C70F622FD
:10056F007C007D0A1203307C007D0A12033074ACCC
:0E057F002DF58274053CF583E493F4FD7F06B0
:10058D007401A807088002C333D8FC90C000F09016
:0F059D00E000EDF07F647E001206CF74FFF022C5
:1004DC001205D77FCC1205FE7F441205FE7F057EE8
:1004EC000012066C1205D77FCC1205FE7FBE1205DA
:1004FC00FE1206528F0B1206528F08750D008F0ECE
:10050C00E50EF50DE50BF50EE50D54F87012E50D45
:10051C00C4F854F0C868F50DE50EC4540F48F50E38
:01052C0022AC
:100480009005BDE493F4FDE4FF12058D9005B0E402
:1004900093F4FD7F0112058D9005BDE493F4FD7F7B
:1004A0000212058DAE0DAF0E7C007D0A1202DB74C8
:1004B000AC2FF58274053EF583E493F4FD7F0512BD
:1004C000058DAE0DAF0E7C007D0A1202DB12057D9C
:0C04D0009005B8E493F4FD7F0702058D51
:1006AF00758901758CFF758A9BD2A9D28CD2AF2226
:03000B0002036687
:10036600C0E0C083C082C0D075D000C000C0067592
:100376008CFF758A9B05180511E51170020510643E
:10038600107004E51064277037F510F511E509259E
:10039600E02412F8E6FE08E6D39400EE648094802A
:1003A600401EE50925E02412F808E6161870011625
:1003B600E50925E02412F8E6FE08E64E7002F50F80
:1003C600E518B40A03751800E518C3950F50069092
:1003D600A0007440F0E518D3950F400590A000E406
:0E03E600F0D006D000D0D0D082D083D0E0324C
:10000E00E50960030200A09005BD93F4FDE4FF1224
:10001E00058D9005ADE493F4FD7F0112058D9005DD
:10002E00BDE493F4FD7F0212058DAE12AF137C0377
:10003E007DE812033074AC2FF58274053EF583E42F
:10004E0093F4FD7F0412058DAE12AF137C007D6418
:10005E001203307C007D0A12033074AC2DF58274CD
:10006E00053CF583E493F4FD7F0512058DAE12AFCA
:10007E001312056FAE12AF137C007D0A120330749B
:10008E00AC2DF58274053CF583E493F4FD7F0712E5
:10009E00058DE509640160030201349005BD93F4FA
:1000AE00FDE4FF12058D9005AEE493F4FD7F011281
:1000BE00058D9005BDE493F4FD7F0212058DAE14FF
:1000CE00AF157C037DE812033074AC2FF5827405F6
:1000DE003EF583E493F4FD7F0412058DAE14AF1547
:1000EE007C007D641203307C007D0A12033074ACF8
:1000FE002DF58274053CF583E493F4FD7F0512051E
:10010E008DAE14AF1512056FAE14AF157C007D0ABF
:10011E0012033074AC2DF58274053CF583E493F430
:10012E00FD7F0712058DE509640260030201C89088
:10013E0005BD93F4FDE4FF12058D9005AFE493F435
:10014E00FD7F0112058D9005BDE493F4FD7F021233
:10015E00058DAE16AF177C037DE812033074AC2FFD
:10016E00F58274053EF583E493F4FD7F0412058D4C
:10017E00AE16AF177C007D641203307C007D0A1230
:10018E00033074AC2DF58274053CF583E493F4FDD5
:10019E007F0512058DAE16AF1712056FAE16AF178F
:1001AE007C007D0A12033074AC2DF58274053CF58B
:0B01BE0083E493F4FD7F0712058D22FF
:1006BF00E50CB40103120480E50C700312000E2246
:0806DA007F6C7E91DEFEDFFC67
:0106E20022F5
:1001C90020B32C1206DA20B32620B3051206BF800D
:1001D900F80509E509B40105750F038012E509B4AD
:1001E9000205750F078008E509B40303E4F5093032
:1001F900B20302028C1206DA30B20302028C20B278
:10020900051206BF80F8050AE50AB40110E50925BB
:10021900E02412F808743C26F618E436F6E50AB428
:100229000210E50925E02412F808743C26F618E4C2
:1002390036F6E50A6403702FF50AE50925E024126C
:10024900F808748826F61874FF36F6E50925E024BF
:1002590012F8E6FEC3EE64809480500BE50925E0B0
:100269002412F8E4F608F6E50F7018E509B401035D
:10027900750F03E509B40203750F07E509B4030314
:10028900E4F50920B11C1206DA20B11620B10512D5
:1002990006BF80F8E4F50FE50925E02412F8E4F635
:1002A90008F620B01A1206DA20B01420B00512069A
:1002B900BF80F8E50C70047F0180027F008F0C225B
:10052D0030B138E50925E02412F8E6FE08E6D3944B
:10053D0000EE648094804023E5097007908000747C
:10054D00FEF022E509B4010790800074FDF022E56C
:10055D0009B4020D90800074FBF02290800074FFAE
:02056D00F0227A
:100638001206831206AF90800074FEF01204DC12DA
:0A06480001C91206BF12052D80F251
:040699007F057E005B
:10069D007C007D0A1202C9EF1FAC0670011E4C7062
:0206AD00F62233
:0205FE00AB0749
:10060000E4FAC294EB139294120699D294EBC313BA
:0C061000FB0ABA08ED7F057E0002069D83
:10065200E4FAC294EBC313FBD294309403430380B5
:090662001206990ABA08EBAF0375
:01066B00226C
:1005D700C200D2947F0C7E0012069DC2947F507E8B
:1005E7000012069DD2947F0A7E0012069DA2949265
:0605F70000120699A200AB
:0105FD0022DB
:030000000203F404
:0C03F400787FE4F6D8FD75812002043B00
:1002C900EF8DF0A4A8F0CF8CF0A428CE8DF0A42E49
:0202D900FE2203
:1002DB00BC000BBE0029EF8DF084FFADF022E4CC07
:1002EB00F875F008EF2FFFEE33FEEC33FCEE9DECD0
:1002FB00984005FCEE9DFE0FD5F0E9E4CEFD22ED16
:10030B00F8F5F0EE8420D21CFEADF075F008EF2F5F
:10031B00FFED33FD4007985006D5F0F222C398FD50
:05032B000FD5F0EA22ED
:10033000C2D5EC30E709B2D5E4C39DFDE49CFCEEE8
:1003400030E715B2D5E4C39FFFE49EFE1202DBC383
:10035000E49DFDE49CFC80031202DB30D507C3E47E
:060360009FFFE49EFE2257
:10040000020638E493A3F8E493A34003F68001F2D4
:1004100008DFF48029E493A3F85407240CC8C333FD
:10042000C4540F4420C8834004F456800146F6DFCC
:10043000E4800B010204081020408090061CE47E3A
:10044000019360BCA3FF543F30E509541FFEE493C1
:10045000A360010ECF54C025E060A840B8E493A388
:10046000FAE493A3F8E493A3C8C582C8CAC583CAB3
:10047000F0A3C8C582C8CAC583CADFE9DEE780BE6B
:0106370000C2
:00000001FF
